:100000004DC1000079C1000077C1000075C100003A
:1000100073C1000071C100006FC100006DC100001C
:100020006BC1000069C1000067C1000065C100002C
:1000300063C1000061C100005FC100005DC100003C
:100040005BC1000059C1000057C1000055C100004C
:1000500053C1000051C100004FC1000018C500008D
:100060004BC1000049C1000047C1000045C100006C
:1000700043C1000041C100003FC100003DC100007C
:100080003BC1000039C1000037C1000035C100008C
:1000900033C1000031C100002FC10000CAC30000FD
:1000A0002BC1000029C1000027C1000025C10000AC
:1000B00023C1000021C100001FC100001DC10000BC
:1000C0001BC1000019C1000017C1000015C10000CC
:1000D00013C1000011C100000FC100000DC10000DC
:1000E0000BC10000B601B801BA01BC01BE01C001DC
:1000F000C201C401C601C801CA01CC01CE01D001B0
:10010000DF01E101E301E501E701E901EB01ED01B7
:10011000EF01F101F301F501F701F90172027A0231
:1001200082028A0292029A02A202AA02B202BA02CF
:10013000C202CA02D202DA02120216021A021E0217
:10014000220226022A022E02320236023A023E021F
:10015000420246026C0274027C0284028C02940207
:100160009C02A402AC02B402BC02C402CC02D402BF
:1001700053065606450649064F068D065A065E0684
:10018000640668066C06720676067A068D06800698
:100190008406880600000A0B02090C0D0E080703EE
:1001A000040100000000000000000000000000004A
:1001B000000000000000000000000000000000003F
:1001C00012111000000000000000000000000000FC
:1001D00000000000000000000000010210202008C4
:1001E0000810204010204080020102010804020192
:1001F0000102040810204080804020100804020101
:100200008004020180402010080402010804020159
:1002100001020408102040800102040810204080E0
:1002200005050505070508080808020202020A0A72
:100230000808040404040101010101010101030390
:10024000030303030303040707070C0C0C0C0C0C3B
:100250000C0C0202020206060606060606060B0B38
:100260000B0B0B0B0B0B00002200250028002B00B2
:100270002E003100340002010000050108010B01CD
:1002800000002100240027002A002D003000330048
:1002900001010000040107010A01C30311241FBE6C
:1002A000CFEFD1E2DEBFCDBF00E00CBF12E0A0E097
:1002B000B2E0EAE2FEE000E00BBF02C007900D9260
:1002C000A031B107D9F722E0A0E1B2E001C01D9250
:1002D000AC3DB207E1F712E0CCE9D2E000E005C0A6
:1002E00022970109FE010BBF9AD5CA39D10780E0D8
:1002F0000807B1F782D597C583CECF93C6E161E0F9
:100300008C2F0CD560E08C2F42D5CF5FC233B9F76C
:1003100062E270E080E192E030D268E971E080E171
:1003200092E0CF912BC26AE070E080E090E01CC4C4
:10033000CF93DF9380E192E044D1029724F080E1F3
:1003400092E047D1F7CF80E192E043D1EC018833CE
:1003500091050CF09FC08E3091052CF58E309105E3
:1003600028F5FC01EE58FF4F61E053C586E119C046
:1003700089E117C08CE115C08FE113C082E211C082
:1003800085E20FC088E20DC08BE20BC08EE209C08F
:1003900081E307C085E405C082E403C08FE301C0A8
:1003A0008BE3F5D403C08C31910534F5FE013E9703
:1003B000EE30F10520F5E058FF4F61E02AC587E1F6
:1003C00019C08AE117C08DE115C080E213C083E235
:1003D00011C086E20FC089E20DC08CE20BC08FE233
:1003E00009C082E307C084E405C081E403C08EE352
:1003F00001C08CE3CCD403C08A3291054CF4FE01D9
:100400007C97EE30F10520F4E257FF4F61E001C523
:10041000FE01BA97EE30F10508F0D0C0E456FF4F68
:1004200061E0F7C487E1B3D461E05CC08AE1AFD496
:1004300061E060C08DE1ABD461E064C080E2A7D42C
:1004400061E068C083E2A3D461E06CC086E29FD41F
:1004500061E070C089E29BD461E074C08CE297D403
:1004600061E078C08FE293D461E07CC082E38FD4F6
:1004700061E080C084E48BD461E084C081E487D4EF
:1004800061E088C08EE383D461E08CC08CE37FD4CC
:1004900061E090C08833910509F490C084569109B9
:1004A0009C012E5031092E30310508F4C9019C0100
:1004B0002C5131092E30310510F4C90104C08A32A3
:1004C00091050CF08A978E30910508F077C0FC01F9
:1004D000E655FF4F60E09DC486E159D460E087E1B6
:1004E00056D460E088E167C089E151D460E08AE1D8
:1004F0004ED460E08BE15FC08CE149D460E08DE1D7
:1005000046D460E08EE157C08FE141D460E080E2E4
:100510003ED460E081E24FC082E239D460E083E201
:1005200036D460E084E247C085E231D460E086E200
:100530002ED460E087E23FC088E229D460E089E2FF
:1005400026D460E08AE237C08BE221D460E08CE2FE
:100550001ED460E08DE22FC08EE219D460E08FE2FD
:1005600016D460E080E327C081E311D460E082E329
:100570000ED460E083E31FC085E409D460E084E426
:1005800006D460E083E417C082E401D460E081E433
:10059000FED360E080E40FC08FE3F9D360E08EE328
:1005A000F6D360E08AE307C08BE3F1D360E08CE32D
:1005B000EED360E08DE3DF91CF91E9C3DF91CF917E
:1005C00008958091430290E020914402821B91099A
:1005D00008952091440280914302281750F4E22F9D
:1005E000F0E0EB5BFD4F808190E02F5F20934402B1
:1005F00008958FEF9FEF0895E091440280914302A8
:10060000E81730F4F0E0EB5BFD4F808190E0089557
:100610008FEF9FEF08950895E0911C02F0911D0265
:100620003097E1F030914402209143023217B0F04C
:1006300040E0242F30E02617370754F4DC01A20FE6
:10064000B31F5C91D901AB5BBD4F5C934F5FF1CFA2
:100650001092440260934302CB0119940895E091F3
:100660001E02F0911F02309729F010922202109280
:10067000210219940895CF92DF92EF92FF920F9387
:100680001F93CF93DF937C01CB018A01209120023D
:10069000222389F0EB016B01C40ED51ECC15DD05BC
:1006A00061F06991D701ED91FC910190F081E02D0D
:1006B000C7011995F3CF642F89D0C801DF91CF917D
:1006C0001F910F91FF90EF90DF90CF900895CF93FF
:1006D000DF931F92CDB7DEB76983209120022223DA
:1006E000D1F020912102203240F021E030E0FC01E5
:1006F0003383228380E090E014C080912202E82FAF
:10070000F0E0ED5DFD4F998190838F5F8093220231
:100710008093210204C061E0CE01019657D081E0B0
:1007200090E00F90DF91CF910895FC011382128227
:1007300048EE53E060E070E044835583668377833E
:1007400084E092E091838083089510924402109295
:100750004302109222021092210218C0CF93DF931D
:10076000EC01862F2FD08FE293E04ED08CE093E007
:1007700046D0CE01DF91CF91E8CFF0CF70931D022C
:1007800060931C02089580E192E0CFCF1092D202D4
:1007900081E08093D0021092CF0261E084E1F7D231
:1007A00061E085E1F4D2E9EBF0E080818E7F808327
:1007B00080818D7F808388E48093B80085E4809376
:1007C000BC000895880F8093BA000895613298F4B0
:1007D0002091D202243089F460938702FC0189E8D9
:1007E00092E0DC012A2F281B261718F421912D9363
:1007F000F9CF80E0089581E0089582E00895909314
:10080000CC028093CB0208959093CE028093CD02C8
:10081000089585ED8093BC008091BC0084FDFCCFE1
:100820001092D202089585EC8093BC001092D202FF
:1008300008951F920F920FB60F9211240BB60F92CC
:100840002F933F934F935F936F937F938F939F93D8
:10085000AF93BF93EF93FF938091B900887F803669
:1008600009F49DC070F5883209F45CC090F48031C1
:1008700009F455C038F4882309F4F3C0883009F42A
:100880004EC0F2C0883109F44DC0803209F45EC018
:10089000EBC0803409F469C050F4803309F456C0C9
:1008A000883309F0E1C080936502BDDFDDC080358B
:1008B00009F44FC0883509F45DC0883409F0D4C00C
:1008C000D2C0883909F4C3C0A8F4883709F467C0D6
:1008D00038F4883609F463C0803709F460C0C4C0B6
:1008E000883809F4B4C0803909F45FC0803809F051
:1008F000BBC05BC0803B09F482C038F4803A09F485
:1009000066C0883A09F47BC0AFC0803C09F4A3C03C
:10091000883C09F4A0C0883B09F486C0A5C080913A
:10092000D10210C09091AA028091A902981770F587
:10093000E091AA0281E08E0F8093AA02F0E0E555D3
:10094000FD4F80818093BB0085EC82C0809365025F
:100950008AC0E091AA0281E08E0F8093AA02809162
:10096000BB00F0E0E555FD4F80839091AA02809195
:10097000A9026AC0E091AA0281E08E0F8093AA02C8
:100980008091BB00F0E0E555FD4F80838091D0025F
:10099000811169C081E08093CF0284EA5DC083E069
:1009A0008093D20210926602CFCF8091660280328D
:1009B00008F04DC0E091660281E08E0F80936602E0
:1009C0008091BB00F0E0E959FD4F8083BDCF2BDF64
:1009D00080916602803230F4E0916602F0E0E959DD
:1009E000FD4F10826091660270E0E091CB02F091C1
:1009F000CC0287E692E019951092660235C084E039
:100A00008093D2021092880210928702E091CD0268
:100A1000F091CE02199580918702811105C081E085
:100A20008093870210928902E091880281E08E0F04
:100A300080938802F0E0E757FD4F80818093BB00F0
:100A40009091880280918702981708F47DCF85E8FD
:100A50008093BC0009C085EC8093BC001092D20248
:100A600003C010926502D5DEFF91EF91BF91AF9167
:100A70009F918F917F916F915F914F913F912F91B6
:100A80000F900BBE0F900FBE0F901F9018951F92E6
:100A90000F920FB60F9211242F933F938F939F9332
:100AA000AF93BF938091D4029091D502A091D602CA
:100AB000B091D7023091D30223E0230F2D3720F4D9
:100AC0000196A11DB11D05C026E8230F0296A11DA8
:100AD000B11D2093D3028093D4029093D502A093AA
:100AE000D602B093D7028091D8029091D902A091FA
:100AF000DA02B091DB020196A11DB11D8093D802EC
:100B00009093D902A093DA02B093DB02BF91AF9128
:100B10009F918F913F912F910F900FBE0F901F903B
:100B200018953FB7F8948091D8029091D902A0917E
:100B3000DA02B091DB0226B5A89B05C02F3F19F061
:100B40000196A11DB11D3FBF6627782F892F9A2FCF
:100B5000620F711D811D911D42E0660F771F881F76
:100B6000991F4A95D1F70895CF92DF92EF92FF92A5
:100B7000CF93DF936B017C01D4DFEB01C114D1046F
:100B8000E104F10479F044D1CCDF6C1B7D0B683EAD
:100B90007340A0F381E0C81AD108E108F108C851F8
:100BA000DC4FECCFDF91CF91FF90EF90DF90CF90B3
:100BB0000895789484B5826084BD84B5816084BDD5
:100BC00085B5826085BD85B5816085BDEEE6F0E0C6
:100BD000808181608083E1E8F0E010828081826022
:100BE0008083808181608083E0E8F0E080818160A3
:100BF0008083E1EBF0E0808184608083E0EBF0E0D3
:100C0000808181608083E1E9F0E08081826080837F
:100C1000808181608083E0E9F0E080818160808371
:100C2000E1EAF0E08081826080838081816080835E
:100C3000E0EAF0E0808181608083E1E2F1E08081A0
:100C400082608083808181608083E0E2F1E0808146
:100C500081608083EAE7F0E0808184608083808126
:100C600082608083808181608083808180688083CE
:100C70001092C100089590E0FC013197E231F10536
:100C800008F04BC0E854FF4FC4C0809180008F77BC
:100C900003C0809180008F7D8093800008958091B3
:100CA0008000877FF9CF84B58F7702C084B58F7DB0
:100CB00084BD08958091B0008F7703C08091B0000B
:100CC0008F7D8093B0000895809190008F7707C04A
:100CD000809190008F7D03C080919000877F8093EA
:100CE000900008958091A0008F7707C08091A000A8
:100CF0008F7D03C08091A000877F8093A00008951E
:100D0000809120018F7707C0809120018F7D03C0E3
:100D100080912001877F809320010895CF93DF93F6
:100D200090E0FC01E652FE4F2491FC01E05EFD4F95
:100D30008491882349F190E0880F991FFC01E058C5
:100D4000FD4FA591B4918A599D4FFC01C591D49155
:100D50009FB7611108C0F8948C91209582238C93E1
:100D6000888182230AC0623051F4F8948C91322F2A
:100D7000309583238C938881822B888304C0F894D8
:100D80008C91822B8C939FBFDF91CF9108950F930D
:100D90001F93CF93DF931F92CDB7DEB7282F30E09C
:100DA000F901EC56FE4F8491F901E652FE4F149181
:100DB000F901E05EFD4F04910023C1F0882319F092
:100DC000698359DF6981E02FF0E0EE0FFF1FEA59D8
:100DD000FD4FA591B4919FB7F8948C91611103C018
:100DE0001095812301C0812B8C939FBF0F90DF91C1
:100DF000CF911F910F9108950895DBDEFDDF7DDA1D
:100E0000C0E0D0E090DA2097E9F30E940000FACF2A
:100E10000895EE0FFF1F0590F491E02D19940790AF
:0A0E2000F691E02D1994F894FFCF2D
:100E2A000000000067033B03E102E902FC020B0336
:00000001FF
