:100000001EC1000056C1000054C1000052C10000D2
:1000100050C100004EC100004CC100004AC10000A8
:1000200048C100000C9485290C9485290C948529DD
:1000300040C100003EC100003CC100003AC10000C8
:1000400038C1000036C1000034C1000032C10000D8
:1000500085C200002EC100002CC100000C94862A2D
:1000600028C100000C94DE2D0C94142E22C1000037
:1000700020C100001EC100001CC100001AC1000008
:1000800018C1000016C1000014C100000C9419131F
:1000900010C100000EC100000CC100000C948C17B0
:1000A00008C1000006C1000004C1000002C1000038
:1000B00000C10000FEC00000FCC00000FAC000004B
:1000C000F8C00000F6C00000F4C00000F2C000005C
:1000D000F0C00000EEC00000ECC00000EAC000006C
:1000E000E8C000009E2BA12B902B942B9A2BD82B91
:1000F000A52BA92BAF2BB32BB72BBD2BC12BC52BFE
:10010000D82BCB2BCF2BD32B00000A0B02090C0DC5
:100110000E080703040100000000000000000000BA
:1001200000000000000000000000000000000000CF
:10013000000000001211100000000000000000008C
:1001400000000000000000000000000000000102AC
:1001500010202008081020401020408002010201D9
:100160000804020101020408102040808040201091
:1001700008040201800402018040201008040201EA
:100180000804020101020408102040800102040852
:10019000102040800505050507050808080802022B
:1001A00002020A0A08080404040401010101010111
:1001B00001010303030303030303040707070C0CF4
:1001C0000C0C0C0C0C0C02020202060606060606BB
:1001D00006060B0B0B0B0B0B0B0B00002000230078
:1001E000260029002C002F0032000001000003012E
:1001F0000601090100002200250028002B002E0026
:100200003100340002010000050108010B0100006B
:100210002100240027002A002D00300033000101B6
:100220000000040107010A01590FEB16F0183B19F1
:100230005E1D2B1F47209222462EF12E970F112470
:100240001FBECFEFD1E2DEBFCDBF00E00CBF14BEBA
:1002500088E10FB6F89480936000109260000FBEA2
:1002600018E0A0E0B2E0ECE5FAE600E00BBF02C067
:1002700007900D92A03AB107D9F72BE0A0EAB8E0B9
:1002800001C01D92AC3BB207E1F712E0CCE3D2E033
:1002900000E006C022970109FE010BBF0E946732F1
:1002A000C832D10780E00807A9F70E94FA310C9400
:1002B0001D35A6CE80E090E020911202309113020D
:1002C00082179307E4F4FC01EE0FFF1FE157F64F8E
:1002D0004081518120910A0230910B02421753074D
:1002E00061F41182108220911A0230911B02215078
:1002F000310930931B0220931A020196DDCF8091C1
:100300008F099091900901969093900980938F099D
:10031000809191099091920901969093920980930E
:100320009109809193099091940901969093940971
:1003300080939309809195099091960901969093E5
:100340009609809395098091970990919809019653
:10035000909398098093970980E090E02091100293
:100360003091110282179307E4F4FC01EE0FFF1F96
:10037000EB57F64F4081518120910A0230910B02D8
:100380004217530761F411821082209118023091B4
:100390001902215031093093190220931802019655
:1003A000DDCF809185099091860901969093860909
:1003B000809385098091870990918809019690938F
:1003C0008809809387098091890990918A0901960B
:1003D00090938A098093890980918B0990918C0967
:1003E000019690938C0980938B0980918D0990914F
:1003F0008E09019690938E0980938D0980E090E09C
:1004000020910E0230910F0282179307E4F4FC0151
:10041000EE0FFF1FE558F64F4081518120910A02EF
:1004200030910B024217530761F411821082209120
:100430001602309117022150310930931702209390
:1004400016020196DDCF80917B0990917C0901967F
:1004500090937C0980937B0980917D0990917E091E
:10046000019690937E0980937D0980917F099091F8
:10047000800901969093800980937F09809181097A
:1004800090918209019690938209809381098091CD
:10049000830990918409019690938409809383093C
:1004A00080E090E020910C0230910D0282179307BA
:1004B00004F59C01220F331FF901E558F64F6081C6
:1004C000718140910A0250910B026417750779F40B
:1004D000F901EF58F64F11821082209114023091E9
:1004E0001502215031093093150220931402019610
:1004F000D9CF8091710990917209019690937209F8
:100500008093710980917309909174090196909379
:100510007409809373098091750990917609019609
:100520009093760980937509809177099091780965
:100530000196909378098093770980917909909139
:100540007A09019690937A09809379090895DC01DC
:10055000ED91FC910190F081E02D19941F920F9282
:100560000FB60F9211248F939F938091AD099091B4
:10057000AE0990938500809384009F918F910F9096
:100580000FBE0F901F901895CF93DF9361507109A4
:100590002EE0269FE001279FD00D1124C80FD91F00
:1005A0009C012E5031092E30310520F42E9761E246
:1005B00070E002C060E270E09C012C5131092E30E5
:1005C000310518F46C9762E270E08A970E9718F480
:1005D000AA9763E270E08EEB99E00E94D616BE0106
:1005E0008EEB99E0B4DF8EEB99E0DF91CF910C9424
:1005F000E916CF93DF93615071092EE0269FE00149
:10060000279FD00D1124C80FD91F9C012E503109EE
:100610002E30310520F42E9761E270E002C060E2D6
:1006200070E09C012C5131092E30310518F46C9783
:1006300062E270E08A970E9718F4AA9763E270E07E
:100640008EEB99E00E94D616BE016C597F4F8EEB5F
:1006500099E07DDF8EEB99E0DF91CF910C94E91664
:10066000AF92BF92CF92DF92EF92FF920F931F93C0
:10067000CF93DF93EC0141E08091AB099091AC09FD
:1006800002970CF440E08091240290912502823080
:10069000910529F4442319F02CE130E002C02DE04B
:1006A00030E08330910521F4442311F02AE230E058
:1006B000049721F4442311F028E330E0442737FD68
:1006C0004095542F60E070E0CB010E9484306B01B4
:1006D0007C019B0180E090E000E010E0409112027C
:1006E000509113028417950774F4FC01EE0FFF1F5D
:1006F000E959F64F408151812417350711F40F5FF6
:100700001F4F0196EBCF8091AB099091AC090297F6
:100710000CF453C0409124025091250242305105FF
:100720000CF44BC080E090E06091100270911102D7
:100730008617970774F4FC01EE0FFF1FE35AF64F7C
:10074000608171812617370711F40F5F1F4F0196E3
:10075000EBCF4230510589F180E090E060910E02CC
:1007600070910F028617970774F4FC01EE0FFF1FBC
:10077000ED5AF64F608171812617370711F40F5F2C
:100780001F4F0196EBCF43305105B9F080E090E068
:1007900040910C0250910D028417950774F4FC01EE
:1007A000EE0FFF1FE75BF64F40815181241735079D
:1007B00011F40F5F1F4F0196EBCF0115110599F54D
:1007C0005E01AA0CBB1CE501C959D64F88819981ED
:1007D00061E070E00EDFD982C88280911A029091A8
:1007E0001B02019690931B0280931A02E501C157E8
:1007F000D64F88819981019699838883C0E0D0E0A3
:100800008091120290911302C817D90764F4FE0177
:10081000EE0FFF1FE959F64F8081918161E070E092
:10082000B3DE2196EDCFC801DF91CF911F910F91DB
:10083000FF90EF90DF90CF90BF90AF900895CF934F
:10084000DF93C0E0D0E08091120290911302C817AC
:10085000D9077CF4FE01EE0FFF1FE157F64F8081B0
:100860009181019721F4CE01FBDE892BE1F72196DE
:10087000EACFDF91CF910895AF92BF92CF92DF92EE
:10088000EF92FF920F931F93CF93DF93EC0141E020
:100890008091AB099091AC0902970CF440E08091F3
:1008A0002402909125028230910529F4442319F005
:1008B00060E070E002C06EE070E08330910539F4D2
:1008C000442329F02AE230E060E070E002C02CE12D
:1008D00030E0049731F4442321F028E330E060E075
:1008E00070E0442737FD4095542F882777FD809589
:1008F000982F0E9484306B017C019B0180E090E086
:1009000000E010E040911002509111028417950709
:1009100074F4FC01EE0FFF1FE35AF64F4081518142
:100920002417350711F40F5F1F4F0196EBCF80910D
:10093000AB099091AC0902970CF44FC080E090E0B5
:1009400040911202509113028417950774F4FC0130
:10095000EE0FFF1FE959F64F4081518124173507EB
:1009600011F40F5F1F4F0196EBCF4091240250917D
:100970002502433051058CF180E090E060910E0239
:1009800070910F028617970774F4FC01EE0FFF1F9A
:10099000ED5AF64F608171812617370711F40F5F0A
:1009A0001F4F0196EBCF43305105B9F080E090E046
:1009B00040910C0250910D028417950774F4FC01CC
:1009C000EE0FFF1FE75BF64F40815181241735077B
:1009D00011F40F5F1F4F0196EBCF0115110599F52B
:1009E0005E01AA0CBB1CE501C35AD64F88819981D0
:1009F00062E070E0FEDDD982C88280911802909199
:100A0000190201969093190280931802E501CB57C1
:100A1000D64F88819981019699838883C0E0D0E080
:100A20008091100290911102C817D90764F4FE0159
:100A3000EE0FFF1FE35AF64F8081918162E070E074
:100A4000A3DD2196EDCFC801DF91CF911F910F91CA
:100A5000FF90EF90DF90CF90BF90AF900895CF932D
:100A6000DF93C0E0D0E08091100290911102C8178E
:100A7000D9077CF4FE01EE0FFF1FEB57F64F808184
:100A80009181019721F4CE01F7DE892BE1F72196C0
:100A9000EACFDF91CF910895AF92BF92CF92DF92CC
:100AA000EF92FF920F931F93CF93DF93EC0141E0FE
:100AB0008091AB099091AC0902970CF440E08091D1
:100AC0002402909125028230910539F4442329F0C3
:100AD0002CE130E060E070E004C02AE230E06CE13C
:100AE00070E08330910531F4442321F02AE230E0B4
:100AF00060E070E0049731F4442321F028E330E013
:100B000060E070E0442737FD4095542F882777FD3B
:100B10008095982F0E9484306B017C019B0180E0BE
:100B200090E000E010E040910E0250910F02841717
:100B3000950774F4FC01EE0FFF1FED5AF64F40814C
:100B400051812417350711F40F5F1F4F0196EBCF2A
:100B50008091AB099091AC0902970CF44BC080E0F6
:100B600090E040911202509113028417950774F49B
:100B7000FC01EE0FFF1FE959F64F40815181241708
:100B8000350711F40F5F1F4F0196EBCF80E090E027
:100B900040911002509111028417950774F4FC01E2
:100BA000EE0FFF1FE35AF64F40815181241735079E
:100BB00011F40F5F1F4F0196EBCF809124029091AB
:100BC00025020497BCF080E090E040910C02509127
:100BD0000D028417950774F4FC01EE0FFF1FE75B0D
:100BE000F64F408151812417350711F40F5F1F4FD5
:100BF0000196EBCF0115110599F55E01AA0CBB1CFE
:100C0000E501CD5AD64F8881998163E070E0F1DC2F
:100C1000D982C88280911602909117020196909312
:100C2000170280931602E501C558D64F8881998135
:100C3000019699838883C0E0D0E080910E02909164
:100C40000F02C817D90764F4FE01EE0FFF1FED5A1B
:100C5000F64F8081918163E070E096DC2196EDCFC4
:100C6000C801DF91CF911F910F91FF90EF90DF901E
:100C7000CF90BF90AF900895CF93DF93C0E0D0E0C6
:100C800080910E0290910F02C817D9077CF4FE01E3
:100C9000EE0FFF1FE558F64F80819181019721F4F7
:100CA000CE01FADE892BE1F72196EACFDF91CF91D1
:100CB0000895AF92BF92CF92DF92EF92FF920F937F
:100CC0001F93CF93DF93EC0141E08091AB099091AA
:100CD000AC0902970CF440E0809124029091250227
:100CE0008230910539F4442329F02CE130E060E0B2
:100CF00070E004C028E330E06AE270E083309105E0
:100D000031F4442321F02AE230E060E070E00497FF
:100D100031F4442321F028E330E060E070E0442720
:100D200037FD4095542F882777FD8095982F0E9496
:100D300084306B017C019B0180E090E000E010E0DA
:100D400040910C0250910D028417950774F4FC0138
:100D5000EE0FFF1FE75BF64F4081518124173507E7
:100D600011F40F5F1F4F0196EBCF8091AB0990916B
:100D7000AC0902970CF445C080E090E0409112026B
:100D8000509113028417950774F4FC01EE0FFF1FB6
:100D9000E959F64F408151812417350711F40F5F4F
:100DA0001F4F0196EBCF80E090E0409110025091F0
:100DB00011028417950774F4FC01EE0FFF1FE35A2C
:100DC000F64F408151812417350711F40F5F1F4FF3
:100DD0000196EBCF80E090E040910E0250910F021F
:100DE0008417950774F4FC01EE0FFF1FED5AF64FC0
:100DF000408151812417350711F40F5F1F4F019671
:100E0000EBCF0115110599F55E01AA0CBB1CE5019C
:100E1000C75BD64F8881998164E070E0EADBD982B4
:100E2000C882809114029091150201969093150248
:100E300080931402E501CF58D64F8881998101969D
:100E400099838883C0E0D0E080910C0290910D02DC
:100E5000C817D90764F4FE01EE0FFF1FE75BF64FDA
:100E60008081918164E070E08FDB2196EDCFC80135
:100E7000DF91CF911F910F91FF90EF90DF90CF9076
:100E8000BF90AF900895CF93DF93C0E0D0E0809102
:100E90000C0290910D02C817D9077CF4FE01EE0FE9
:100EA000FF1FEF58F64F80819181019721F4CE0109
:100EB00000DF892BE1F72196EACFDF91CF910895EA
:100EC000AF92BF92CF92DF92EF92FF920F931F9358
:100ED000CF93DF9320911A0230911B02809112026E
:100EE00090911302281739070CF4A9DC8091240291
:100EF00090912502029764F0209118023091190216
:100F00008091100290911102281739070CF4A7DD87
:100F10008091240290912502039764F0209116029B
:100F20003091170280910E0290910F022817390715
:100F30000CF4A2DE8091240290912502049764F0C3
:100F4000209114023091150280910C0290910D02B3
:100F5000281739070CF497DF80EA98E00E94F5150E
:100F6000882309F49BC7B1ECCB2EB8E0DB2E0CEB49
:100F700018E0C1E0D0E0F6018081882309F480C741
:100F8000F801838194818130910571F02CF4892BD3
:100F9000A1F463ED72E00DC08230910541F003973A
:100FA00061F468EC72E005C069EB72E002C061ECCC
:100FB00072E08DE399E00E945F3169EB72E08DE3AE
:100FC00099E00E94B231882309F45AC7F801808160
:100FD000992787FD9095C0979093AA098093A909B6
:100FE00020E030E060E070E0409112025091130286
:100FF000241735076CF5A901440F551FFA01E9596B
:10100000F64F0190F081E02D8E179F0709F443C73A
:10101000FA01E35AF64F0190F081E02D8E179F07F9
:1010200009F439C7FA01ED5AF64F0190F081E02D2D
:101030008E179F0709F42FC7FA01E75BF64F40812F
:1010400051818417950709F426C72F5F3F4FCCCFF6
:10105000672B09F415C72091AB093091AC092230F8
:1010600031050CF0BCC10E970CF063C0E12CF12CE3
:101070008091120290911302E816F9068CF557013F
:10108000AA0CBB1CF501E959F64F80819181209192
:10109000A9093091AA0928173907F1F461E073E032
:1010A00085E19BE00E943E2FF501E157F64FD18389
:1010B000C08380911A0290911B02019790931B02AA
:1010C00080931A02BCDB8091A7099091A8090A9627
:1010D0009093A8098093A709FFEFEF1AFF0AC8CFE2
:1010E0008091A5099091A6092091A7093091A8099E
:1010F0008217930729F03093A6092093A5090FC002
:101100000A979093A8098093A7099093A6098093C2
:10111000A5096AED72E085E19BE00E943E2F609197
:10112000A7097091A8094AE050E085E19BE00E9480
:10113000F72F8091A9099091AA090E970E9708F0B0
:101140006AC0809124029091250202970CF463C03A
:10115000E12CF12C8091100290911102E816F90611
:101160008CF55701AA0CBB1CF501E35AF64F8081A0
:1011700091812091A9093091AA0928173907F1F422
:101180006FEE72E085E19BE00E943E2FF501EB5788
:10119000F64FD183C0838091180290911902019774
:1011A00090931902809318025ADC8091A3099091C0
:1011B000A4090A969093A4098093A3098FEFE81AD3
:1011C000F80AC8CF8091A1099091A2092091A309A2
:1011D0003091A4098217930729F03093A209209334
:1011E000A1090FC00A979093A4098093A309909333
:1011F000A2098093A1096FED72E085E19BE00E9456
:101200003E2F6091A3097091A4094AE050E085E166
:101210009BE00E94F72F8091A9099091AA094C9711
:101220000E9708F06AC080912402909125020397DE
:101230000CF463C0E12CF12C80910E0290910F020E
:10124000E816F9068CF55701AA0CBB1CF501ED5AFE
:10125000F64F808191812091A9093091AA09281720
:101260003907F1F465EF72E085E19BE00E943E2FC3
:10127000F501E558F64FD183C08380911602909115
:10128000170201979093170280931602F5DC809164
:101290009F099091A0090A969093A00980939F09B5
:1012A000EFEFEE1AFE0AC8CF80919D0990919E093A
:1012B00020919F093091A0098217930729F030935C
:1012C0009E0920939D090FC00A979093A0098093CF
:1012D0009F0990939E0980939D0964EE72E085E1D9
:1012E0009BE00E943E2F60919F097091A0094AE007
:1012F00050E085E19BE00E94F72F8091A909909131
:10130000AA098A970E9708F06AC0809124029091EA
:10131000250204970CF463C0E12CF12C80910C029F
:1013200090910D02E816F9068CF55701AA0CBB1C2A
:10133000F501E75BF64F808191812091A9093091F9
:10134000AA0928173907F1F46BEF72E085E19BE0F9
:101350000E943E2FF501EF58F64FD183C083809154
:101360001402909115020197909315028093140234
:101370008ADD80919B0990919C090A9690939C0923
:1013800080939B09FFEFEF1AFF0AC8CF809199095C
:1013900090919A0920919B0930919C09821793079B
:1013A00029F030939A09209399090FC00A979093D6
:1013B0009C0980939B0990939A098093990969EEFF
:1013C00072E085E19BE00E943E2F60919B09709145
:1013D0009C094AE050E085E19BE00E94F72F809154
:1013E000AB099091AC0902970CF44AC58091240294
:1013F0009091250202970CF443C58091A909909120
:10140000AA090E970CF052C1E12CF12C8091120226
:1014100090911302E816F9068CF55701AA0CBB1C33
:10142000F501E959F64F808191812091A909309108
:10143000AA0928173907F1F461E073E085E19BE020
:101440000E943E2FF501E157F64FD183C083809172
:101450001A0290911B02019790931B0280931A022B
:10146000EED98091A7099091A8090A969093A809AE
:101470008093A7098FEFE81AF80AC8CF8091A509D1
:101480009091A6092091A7093091A8098217930786
:1014900029F03093A6092093A509FEC00A979093DE
:1014A000A8098093A7099093A6098093A509809124
:1014B000240290912502029744F480912402909195
:1014C000250203970CF049C051C0E12CF12C80910A
:1014D000100290911102E816F9067CF79701220F8D
:1014E000331FF901E35AF64F808191814091A90998
:1014F0005091AA094817590761F58091A309909165
:10150000A4090A969093A4098093A3099093A20931
:101510008093A109F901EB57F64FD183C0838091E5
:101520001802909119020197909319028093180262
:1015300096DA6EEE72E085E19BE00E943E2F6091AC
:10154000A3097091A4094AE050E085E19BE00E9464
:10155000F72FEFEFEE1AFE0ABACFE12CF12C8091B3
:101560000E0290910F02E816F90644F080912402D1
:101570009091250204970CF040C048C09701220FBB
:10158000331FF901ED5AF64F808191814091A909ED
:101590005091AA094817590761F580919F099091C8
:1015A000A0090A969093A00980939F0990939E09A1
:1015B00080939D09F901E558F64FD183C08380914E
:1015C00016029091170201979093170280931602CA
:1015D00053DB64EF72E085E19BE00E943E2F609157
:1015E0009F097091A0094AE050E085E19BE00E94CC
:1015F000F72FFFEFEF1AFF0AB2CFE12CF12C809109
:101600000C0290910D02E816F9063CF06AED72E0CA
:1016100085E19BE00E943E2F3FC09701220F331FC0
:10162000F901E75BF64F808191814091A9095091C2
:10163000AA094817590761F580919B0990919C0967
:101640000A9690939C0980939B0990939A098093A2
:101650009909F901EF58F64FD183C08380911402A4
:1016600090911502019790931502809314020BDC60
:101670006AEF72E085E19BE00E943E2F60919B093A
:1016800070919C094AE050E085E19BE00E94F72FB1
:101690008FEFE81AF80AB3CF6091A7097091A809F3
:1016A0004AE050E085E19BE00E94F72F8091A90974
:1016B0009091AA090E970E9708F04BC1E12CF12CDE
:1016C0008091100290911102E816F9068CF55701ED
:1016D000AA0CBB1CF501E35AF64F80819181209141
:1016E000A9093091AA0928173907F1F46FEE72E0C1
:1016F00085E19BE00E943E2FF501EB57F64FD18329
:10170000C083809118029091190201979093190259
:1017100080931802A4D98091A3099091A4090A96F4
:101720009093A4098093A309EFEFEE1AFE0AC8CFA5
:101730008091A1099091A2092091A3093091A40957
:101740008217930729F03093A2092093A109F7C0CB
:101750000A979093A4098093A3099093A209809378
:10176000A109E12CF12C8091120290911302E8164C
:10177000F9060CF03FC09701220F331FF901E95918
:10178000F64F808191814091A9095091AA0948178B
:10179000590761F58091A7099091A8090A9690933D
:1017A000A8098093A7099093A6098093A509F90138
:1017B000E157F64FD183C08380911A0290911B02AA
:1017C000019790931B0280931A0239D860E073E06E
:1017D00085E19BE00E943E2F6091A7097091A809C6
:1017E0004AE050E085E19BE00E94F72FFFEFEF1AFF
:1017F000FF0AB9CF8091240290912502039744F407
:10180000809124029091250204970CF049C051C0A8
:10181000E12CF12C80910E0290910F02E816F9064E
:101820007CF79701220F331FF901ED5AF64F8081A3
:1018300091814091A9095091AA094817590761F56A
:1018400080919F099091A0090A969093A009809396
:101850009F0990939E0980939D09F901E558F64FE1
:10186000D183C083809116029091170201979093C3
:1018700017028093160200DA64EF72E085E19BE0C4
:101880000E943E2F60919F097091A0094AE050E0AC
:1018900085E19BE00E94F72F8FEFE81AF80ABACF94
:1018A000E12CF12C80910C0290910D02E816F906C2
:1018B0003CF06FED72E085E19BE00E943E2F3FC05F
:1018C0009701220F331FF901E75BF64F8081918169
:1018D0004091A9095091AA094817590761F58091CB
:1018E0009B0990919C090A9690939C0980939B096F
:1018F00090939A0980939909F901EF58F64FD18393
:10190000C083809114029091150201979093150263
:1019100080931402B8DA6AEF72E085E19BE00E94DE
:101920003E2F60919B0970919C094AE050E085E14F
:101930009BE00E94F72FEFEFEE1AFE0AB3CF609103
:10194000A3097091A4094AE050E085E19BE00E9460
:10195000F72F8091A9099091AA094C970E9708F04A
:1019600046C1E12CF12C80910E0290910F02E816F5
:10197000F9068CF55701AA0CBB1CF501ED5AF64F80
:10198000808191812091A9093091AA0928173907EE
:10199000F1F465EF72E085E19BE00E943E2FF501D6
:1019A000E558F64FD183C0838091160290911702BB
:1019B000019790931702809316025ED980919F0938
:1019C0009091A0090A969093A00980939F09FFEF38
:1019D000EF1AFF0AC8CF80919D0990919E0920912E
:1019E0009F093091A0098217930729F030939E092F
:1019F00020939D09F2C00A979093A00980939F09B4
:101A000090939E0980939D09E12CF12C8091120204
:101A100090911302E816F9060CF040C09701220FCE
:101A2000331FF901E959F64F808191814091A9094D
:101A30005091AA094817590769F58091A709909113
:101A4000A8090A969093A8098093A7099093A609DC
:101A50008093A509F901E157F64FD183C0838091A6
:101A60001A0290911B02019790931B0280931A0215
:101A70000E941F0460E073E085E19BE00E943E2F1E
:101A80006091A7097091A8094AE050E085E19BE0C8
:101A90000E94F72F8FEFE81AF80AB8CFE12CF12C4B
:101AA0008091120290911302E816F9060CF040C0E2
:101AB0009701220F331FF901E35AF64F808191817C
:101AC0004091A9095091AA094817590769F58091D1
:101AD000A3099091A4090A969093A4098093A3095D
:101AE0009093A2098093A109F901EB57F64FD18396
:101AF000C083809118029091190201979093190266
:101B0000809318020E942F056EEE72E085E19BE043
:101B10000E943E2F6091A3097091A4094AE050E011
:101B200085E19BE00E94F72FEFEFEE1AFE0AB8CF97
:101B3000809124029091250204973CF464EE72E0B7
:101B400085E19BE00E943E2F48C0E12CF12C809162
:101B50000C0290910D02E816F90684F79701220F06
:101B6000331FF901E75BF64F808191814091A9090C
:101B70005091AA094817590761F580919B099091E6
:101B80009C090A9690939C0980939B0990939A09CB
:101B900080939909F901EF58F64FD183C083809162
:101BA00014029091150201979093150280931402EC
:101BB0006AD96AEF72E085E19BE00E943E2F609156
:101BC0009B0970919C094AE050E085E19BE00E94EE
:101BD000F72FFFEFEF1AFF0ABACF60919F097091BC
:101BE000A0094AE050E085E19BE00E94F72F809138
:101BF000A9099091AA098A970E9708F041C1E12C92
:101C0000F12C80910C0290910D02E816F9068CF5EA
:101C10005701AA0CBB1CF501E75BF64F808191814F
:101C20002091A9093091AA0928173907F1F46BEF1F
:101C300072E085E19BE00E943E2FF501EF58F64FE0
:101C4000D183C083809114029091150201979093E3
:101C500015028093140217D980919B0990919C09D9
:101C60000A9690939C0980939B098FEFE81AF80AD3
:101C7000C8CF8091990990919A0920919B09309140
:101C80009C098217930729F030939A0920939909A8
:101C9000EDC00A9790939C0980939B0990939A09B1
:101CA00080939909E12CF12C8091120290911302FA
:101CB000E816F9060CF040C09701220F331FF90116
:101CC000E959F64F808191814091A9095091AA0963
:101CD0004817590769F58091A7099091A8090A96B4
:101CE0009093A8098093A7099093A6098093A509CA
:101CF000F901E157F64FD183C08380911A02909188
:101D00001B02019790931B0280931A020E941F04EA
:101D100060E073E085E19BE00E943E2F6091A7099F
:101D20007091A8094AE050E085E19BE00E94F72FFE
:101D3000EFEFEE1AFE0AB8CFE12CF12C80911002E1
:101D400090911102E816F9060CF040C09701220F9D
:101D5000331FF901E35AF64F808191814091A9091F
:101D60005091AA094817590769F58091A3099091E4
:101D7000A4090A969093A4098093A3099093A209B9
:101D80008093A109F901EB57F64FD183C08380916D
:101D900018029091190201979093190280931802EA
:101DA0000E942F056EEE72E085E19BE00E943E2FBF
:101DB0006091A3097091A4094AE050E085E19BE09D
:101DC0000E94F72FFFEFEF1AFF0AB8CFE12CF12C9A
:101DD00080910E0290910F02E816F9060CF040C0B7
:101DE0009701220F331FF901ED5AF64F808191813F
:101DF0004091A9095091AA094817590769F580919E
:101E00009F099091A0090A969093A00980939F0939
:101E100090939E0980939D09F901E558F64FD1836F
:101E2000C083809116029091170201979093170238
:101E3000809316020E943C0664EF72E085E19BE00D
:101E40000E943E2F60919F097091A0094AE050E0E6
:101E500085E19BE00E94F72F8FEFE81AF80AB8CFD0
:101E600069EE72E085E19BE00E943E2F60919B0944
:101E700070919C094AE050E085E19BE00E94F72FB9
:101E8000E6E0CE0ED11C0A5F1F4FF8E0083F1F07A7
:101E900009F071C803C06F5F7F4FD7C8DF91CF9142
:101EA0001F910F91FF90EF90DF90CF90BF90AF9078
:101EB0000895EF920F9300E020E040E060E085EBB2
:101EC00099E00E94CA2E60E570E08FEA99E00E94D6
:101ED0008C1F63E978E083E499E00E940B3163E9A9
:101EE00078E08DE399E00E940B3163E978E087E3C5
:101EF00099E00E940B3163E978E081E399E00E9468
:101F00000B3120E049E068E08FE099E00E94572A19
:101F100008E0E02E07E026E232E04EE252E065E320
:101F200072E080EA98E0C1D30F91EF9008958FE0BE
:101F300099E00E94032A81E399E00E94A43087E39C
:101F400099E00E94A4308DE399E00E94A43083E4DC
:101F500099E00C94A430CF93DF9300D000D0CDB79C
:101F6000DEB76DE672E0CE0101960E94D62EAE017C
:101F70004F5F5F4F61E772E08EE89AE00E94111DAB
:101F80008FEA99E00E944C1F26960FB6F894DEBFA8
:101F90000FBECDBFDF91CF9108950F931F93CF93C5
:101FA000DF9300D000D0CDB7DEB763E977E085E1FD
:101FB0009BE00E94492F63EB77E085E19BE00E9464
:101FC000492F85E19BE00E946F2C892BD1F365E1BD
:101FD0007BE0CE0101960E944B30BE016F5F7F4FC8
:101FE00081E399E00E945431CE0101960E94A43011
:101FF00020E030E04AE050E06EE279E081E399E0F1
:102000000E94D03103E010E080912E09992787FDCE
:102010009095C0979093AC098093AB0980912F095C
:10202000992787FD9095C09790932502809324026D
:1020300061E070E080E090E00E94FF2A0150110909
:1020400019F763ED77E085E19BE00E943E2F6091F8
:10205000AB097091AC094AE050E085E19BE00E9439
:10206000F72F6BED77E085E19BE00E943E2F6091BA
:102070002402709125024AE050E085E19BE00E9435
:10208000F72F26960FB6F894DEBF0FBECDBFDF91B7
:10209000CF911F910F910895CF92DF92EF92FF920F
:1020A0000F931F93CF93DF938EEB99E06CD626E0CE
:1020B00040E855E260E070E085E19BE00E947E2D03
:1020C00061E070E080E090E00E94FF2A66DF43DF7D
:1020D0008091AB099091AC090097F9F483E090E00E
:1020E0009093130280931202909311028093100236
:1020F00090930F0280930E0290930D0280930C0236
:1021000027E030E030930B0220930A0225E030E014
:102110003093900920938F0921C018161906D4F521
:1021200085E090E090931302809312029093110245
:102130008093100290930F0280930E0290930D02F1
:1021400080930C0290930B0280930A0223E030E00C
:102150003093900920938F0982E090E09093920948
:10216000809391093093860920938509909388097B
:102170008093870930937C0920937B0990937E0993
:1021800080937D09309372092093710990937409AB
:1021900080937309809112029091130290931B0215
:1021A00080931A028091100290911102909319026B
:1021B0008093180280910E0290910F029093170263
:1021C0008093160280910C0290910D02909315025B
:1021D0008093140201E010E080912202909123028A
:1021E000892B09F456C01092230210922202C0E0FB
:1021F000D0E08091120290911302C817D907C4F45D
:102200002EE030E040E050E060E070E0CB010E9462
:102210008430FE01EE0FFF1FE959F64F7183608392
:1022200061E070E080E090E00E94FF2A2196E1CF1B
:10223000C0E0D0E08091120290911302C817D90734
:102240005CF6FE01EE0FFF1FE959F64FC080D1800A
:1022500021967E018091120290911302E816F906F0
:102260004CF7F701EE0FFF1FE959F64F808191817E
:10227000C816D90651F4109323020093220265EE8A
:1022800077E085E19BE00E943E2F8FEFE81AF80A85
:10229000E1CF01E010E08091200290912102892B92
:1022A00009F457C01092210210922002C0E0D0E041
:1022B0008091100290911102C817D907CCF42CE13B
:1022C00030E040E050E06EE070E080E090E00E949E
:1022D0008430FE01EE0FFF1FE35AF64F71836083D7
:1022E00061E070E080E090E00E94FF2A2196E0CF5C
:1022F000C0E0D0E08091100290911102C817D90778
:1023000054F6FE01EE0FFF1FE35AF64FC080D18056
:1023100021967E018091100290911102E816F90633
:102320004CF7F701EE0FFF1FE35AF64F80819181C2
:10233000C816D90651F410932102009320026BEEC7
:1023400077E085E19BE00E943E2F8FEFE81AF80AC4
:10235000E1CF01E010E080911E0290911F02892BD5
:1023600009F457C010921F0210921E02C0E0D0E084
:1023700080910E0290910F02C817D907CCF42AE27F
:1023800030E040E050E06CE170E080E090E00E94DE
:102390008430FE01EE0FFF1FED5AF64F718360830C
:1023A00061E070E080E090E00E94FF2A2196E0CF9B
:1023B000C0E0D0E080910E0290910F02C817D907BB
:1023C00054F6FE01EE0FFF1FED5AF64FC080D1808C
:1023D00021967E0180910E0290910F02E816F90677
:1023E0004CF7F701EE0FFF1FED5AF64F80819181F8
:1023F000C816D90651F410931F0200931E0261EF14
:1024000077E085E19BE00E943E2F8FEFE81AF80A03
:10241000E1CF01E010E080911C0290911D02892B18
:1024200009F457C010921D0210921C02C0E0D0E0C7
:1024300080910C0290910D02C817D907CCF428E3C3
:1024400030E040E050E06AE270E080E090E00E941E
:102450008430FE01EE0FFF1FE75BF64F7183608350
:1024600061E070E080E090E00E94FF2A2196E0CFDA
:10247000C0E0D0E080910C0290910D02C817D907FE
:1024800054F6FE01EE0FFF1FE75BF64FC080D180D0
:1024900021967E0180910C0290910D02E816F906BA
:1024A0004CF7F701EE0FFF1FE75BF64F808191813C
:1024B000C816D90651F410931D0200931C0267EF51
:1024C00077E085E19BE00E943E2F8FEFE81AF80A43
:1024D000E1CFC0E0D0E08091120290911302C817C2
:1024E000D9076CF4FE01EE0FFF1FE959F64F80810A
:1024F000918161E070E00E94C4022196ECCF80914E
:1025000024029091250202973CF48091240290913C
:1025100025020397FCF416C0C0E0D0E080911002C1
:1025200090911102C817D90784F7FE01EE0FFF1F23
:10253000E35AF64F8081918162E070E00E94C4020C
:102540002196ECCF809124029091250204970CF003
:1025500058C016C0C0E0D0E080910E0290910F02EA
:10256000C817D9077CF7FE01EE0FFF1FED5AF64F93
:102570008081918163E070E00E94C4022196ECCFDB
:10258000F89410928000109281008EEE95E890935E
:10259000AE098093AD09909385008093840080916B
:1025A000810084608093810080916F0081608093BE
:1025B0006F00789480E1809391001092900083E006
:1025C0008093BB0984E294EF9093BD098093BC098A
:1025D000909397008093960083E1809391008AE521
:1025E00091E0909378028093770281E0809371006C
:1025F000DF91CF911F910F91FF90EF90DF90CF90DF
:102600000895C0E0D0E080910C0290910D02C817AF
:10261000D9070CF0B5CFFE01EE0FFF1FE75BF64FB9
:102620008081918164E070E00E94C4022196EBCF2A
:1026300008951F920F920FB60F9211240BB60F92AE
:102640002F933F934F935F936F937F938F939F93BA
:10265000AF93BF93EF93FF93E0917702F0917802ED
:102660001995FF91EF91BF91AF919F918F917F91BC
:102670006F915F914F913F912F910F900BBE0F90F3
:102680000FBE0F901F901895FC01108214821382C8
:1026900015820895862F642F0C94D92B862F642FD2
:1026A0000C94122C862F0C94472C4F925F926F92B1
:1026B0007F928F929F92AF92BF92CF92DF92EF92D2
:1026C0000F93CF93DF93EC014B013A01590102962E
:1026D000DBDF81E098E0998388836E018CE1C80E8E
:1026E000D11C26018CE3480E511CC601CDDF86E0CB
:1026F000C80ED11CC414D504C1F7FE01EE59FF4F1A
:10270000718260823296B182A082329600833196C5
:10271000E08237979182808238968AE090E09183B8
:102720008083329684EF91E0918380833396118287
:10273000108271971082118212821382C459DF4F66
:102740001882DF91CF910F91EF90DF90CF90BF90E3
:10275000AF909F908F907F906F905F904F90089573
:102760002F923F924F925F926F927F928F929F92A1
:10277000AF92BF92CF92DF92EF92FF920F931F938F
:10278000CF93DF93CDB7DEB728970FB6F894DEBFAF
:102790000FBECDBF98878F83F12C4C0186E6880E43
:1027A000911C0F8118850E591F4FD4018C91F8167A
:1027B000A0F4AF81B8858D919C91F801A081B18181
:1027C000AF0DB11DFC012081318142E06C918F8100
:1027D0009885F9011995F394E8CF512CEF81F8858C
:1027E000E959FF4FFA83E9830F8118850C591F4F70
:1027F000C12CD12C7601C3948F8198858E599F4F1F
:102800009C838B83A981BA818C91581608F088C06B
:10281000A52CB12CAF81B8858D919C91F801A08138
:10282000B181AA0DBB1DFC012081318141E06C9179
:102830008F819885F9011995AF81B8858D919C910B
:10284000F801A081B181AA0DBB1DFC012281338159
:1028500040E06C918F819885F9011995D701C601E7
:10286000052C04C0880F991FAA1FBB1F0A94D2F71A
:102870009C011C0120943094412CD4018C91EF8157
:10288000F88540815181481648F5642C712CEB8104
:10289000FC81A081B181A60DB71DFA01448155814B
:1028A0006C918F8198852D833E83FA011995660C72
:1028B000771C2D813E81EF81F885E60DF71D892B70
:1028C00029F480859185822B932B04C08085918586
:1028D00082219321918780874394CFCFF801A081F3
:1028E000B181AA0DBB1DFA012281338141E06C91B7
:1028F0008F819885F9011995AF81B8858D919C914B
:10290000F801A081B181AA0DBB1DFC01208131819C
:1029100040E06C918F819885F9011995539472CF9D
:1029200028960FB6F894DEBF0FBECDBFDF91CF91D2
:102930001F910F91FF90EF90DF90CF90BF90AF90DD
:102940009F908F907F906F905F904F903F902F90CF
:102950000895FC0180E090E0258D368D261737071D
:1029600039F0019636968A309105B1F78FEF9FEFD7
:102970000895DC0126E0629FA00DB11D1124909600
:102980005C934E935F9721E091962C939197FC0175
:10299000E459FF4F208131960190F081E02D2223F0
:1029A00031F0309749F0611107C0DC0102C0309767
:1029B00019F05C968C9119940895CF92DF92FF9252
:1029C0000F931F93CF93DF931F92CDB7DEB76C01A8
:1029D000F62EFC0186E0689FE00DF11D112411A286
:1029E000878D90A181309105E9F01CF4892B51F07D
:1029F00044C08230910591F1039709F03EC040E058
:102A000050E030C04423C9F141E050E0C601B1DFDD
:102A10000E94D02AF601E85AFF4F608371838283B7
:102A200093832BC049830E94D02AF601E85AFF4FB6
:102A30000081118122813381601B710B820B930B0A
:102A400072960081118120E030E049810617170756
:102A50002807390718F442E050E004C041110DC0C6
:102A600043E050E06F2DC6010F90DF91CF911F9191
:102A70000F91FF90DF90CF907CCF0F90DF91CF919F
:102A80001F910F91FF90DF90CF9008952F923F926A
:102A90004F925F926F927F928F929F92AF92BF926E
:102AA000CF92DF92EF92FF920F931F93CF93DF931A
:102AB0001F92CDB7DEB71C01FC014AE08FEF9FEFFC
:102AC000278D30A1232B21F4148E968F858F11A290
:102AD000415036964111F4CF712C610126E6C20EA9
:102AE000D11C510187E6A80EB11C4101A0E68A0E57
:102AF000911C46E0442ED6018C91781608F053C004
:102B0000612C8101070D111D070D111D085F1F4F5D
:102B1000F501E0806E1408F044C0F8014081518155
:102B2000062C02C0569547950A94E2F741707E9CA8
:102B300070011124E60CF11CD401ED91FC91EE0D15
:102B4000FF1D5080B701C101498303DF498197FD13
:102B500002C0682F1BC0019611F5442301F180E0EB
:102B600090E060E070E0F101E80FF91F248D211181
:102B700010C0469EF001479EF00D1124E20DF31D9A
:102B8000548EF68EE58E10A2178E41E0C10115DF3E
:102B900006C06F5F7F4F06966A30710521F7639418
:102BA000B7CF7394A8CF20E030E080E0F101E20FCE
:102BB000F31F91A1911181E02A5F3F4F2C33310522
:102BC000A9F70F90DF91CF911F910F91FF90EF9098
:102BD000DF90CF90BF90AF909F908F907F906F903D
:102BE0005F904F903F902F900895CF92DF92EF9299
:102BF000FF920F931F93CF93DF938C010E94D02AF3
:102C0000E801C45ADF4FC880D980EA80FB806C1984
:102C10007D098E099F09F801E859FF4FC080D180D6
:102C2000E12CF12CC616D706E806F90660F4C801B7
:102C300097DDC8012BDF182F0E94D02A6883798383
:102C40008A839B8301C010E0812FDF91CF911F9178
:102C50000F91FF90EF90DF90CF9008958091EE0953
:102C600090E02091EF09821B910908952091EF09CE
:102C70008091EE09281750F4E22FF0E0E051F64F72
:102C8000808190E02F5F2093EF0908958FEF9FEFF1
:102C90000895E091EF098091EE09E81730F4F0E033
:102CA000E051F64F808190E008958FEF9FEF0895F7
:102CB0000895CF92DF92EF92FF920F931F93CF93DD
:102CC000DF937C01CB018A012091CA09222389F07C
:102CD000EB016B01C40ED51ECC15DD0561F06991C9
:102CE000D701ED91FC910190F081E02DC70119957C
:102CF000F3CF642FE8D0C801DF91CF911F910F91DE
:102D0000FF90EF90DF90CF900895CF93DF931F92C5
:102D1000CDB7DEB769832091CA092223D1F0209173
:102D2000CB09203240F021E030E0FC0133832283E4
:102D300080E090E014C08091CC09E82FF0E0E353EC
:102D4000F64F998190838F5F8093CC098093CB0954
:102D500004C061E0CE010196B6D081E090E00F9012
:102D6000DF91CF910895FC011382128248EE53E067
:102D700060E070E044835583668377838BE098E05E
:102D80009183808308951092EF091092EE091092BA
:102D9000CC091092CB0922C081E08093CA096093CC
:102DA000ED091092CC091092CB090895F5CF0F933D
:102DB000062F21E04091CB096DEC79E08091ED097F
:102DC0002BD01092CC091092CB091092CA090F9106
:102DD000089561E0ECCF8EEB99E0C5CF10927D0AAB
:102DE00081E080937B0A10927A0A61E084E10E947C
:102DF000122C61E085E10E94122CE9EBF0E0808169
:102E00008E7F808380818D7F808388E48093B8006B
:102E100085E48093BC0008950F93413208F04AC0C6
:102E200090917D0A9111FCCF92E090937D0A0093DE
:102E30007B0A9FEF9093100A1092550A4093540A10
:102E4000FB0166E57AE0DB019A2F961B941718F4D4
:102E500091919D93F9CF10927C0A90917C0A880FF2
:102E6000892B80937C0A80917A0A813061F41092D8
:102E70007A0A80917C0A8093BB008091BC0083FD1C
:102E8000F8CF85EC01C085EE8093BC00222321F0B1
:102E900080917D0A8230E1F38091100A8F3F61F0CA
:102EA0008091100A803251F08091100A803341F4F1
:102EB00083E007C081E005C080E003C082E001C07C
:102EC00084E00F910895613298F420917D0A2430B6
:102ED00089F46093320AFC0184E39AE0DC012A2F32
:102EE000281B261718F421912D93F9CF80E008951F
:102EF00081E0089582E0089585ED8093BC00809183
:102F0000BC0084FDFCCF10927D0A089585EC80936F
:102F1000BC0010927D0A08951F920F920FB60F9277
:102F200011240BB60F922F933F934F935F936F93A0
:102F30007F938F939F93AF93BF93EF93FF93809172
:102F4000B900887F803609F49DC070F5883209F495
:102F50005CC090F4803109F455C038F4882309F43A
:102F6000F3C0883009F44EC0F2C0883109F44DC076
:102F7000803209F45EC0EBC0803409F469C050F4BB
:102F8000803309F456C0883309F0E1C08093100AF9
:102F9000BDDFDDC0803509F44FC0883509F45DC060
:102FA000883409F0D4C0D2C0883909F4C3C0A8F469
:102FB000883709F467C038F4883609F463C080376D
:102FC00009F460C0C4C0883809F4B4C0803909F479
:102FD0005FC0803809F0BBC05BC0803B09F482C091
:102FE00038F4803A09F466C0883A09F47BC0AFC06F
:102FF000803C09F4A3C0883C09F4A0C0883B09F4D4
:1030000086C0A5C080917C0A10C09091550A80911D
:10301000540A981770F5E091550A81E08E0F80935D
:10302000550AF0E0EA5AF54F80818093BB0085ECA9
:1030300082C08093100A8AC0E091550A81E08E0F09
:103040008093550A8091BB00F0E0EA5AF54F8083E7
:103050009091550A8091540A6AC0E091550A81E026
:103060008E0F8093550A8091BB00F0E0EA5AF54F2D
:10307000808380917B0A811169C081E080937A0A04
:1030800084EA5DC083E080937D0A1092110ACFCF5D
:103090008091110A803208F04DC0E091110A81E060
:1030A0008E0F8093110A8091BB00F0E0EE5EF54F29
:1030B0008083BDCF2BDF8091110A803230F4E09104
:1030C000110AF0E0EE5EF54F10826091110A70E097
:1030D000E091760AF091770A82E19AE019951092D0
:1030E000110A35C084E080937D0A1092330A109251
:1030F000320AE091780AF091790A19958091320AA2
:10310000811105C081E08093320A1092340AE09167
:10311000330A81E08E0F8093330AF0E0EC5CF54FC8
:1031200080818093BB009091330A8091320A981776
:1031300008F47DCF85E88093BC0009C085EC8093BE
:10314000BC0010927D0A03C01092100AD5DEFF91D8
:10315000EF91BF91AF919F918F917F916F915F910F
:103160004F913F912F910F900BBE0F900FBE0F907C
:103170001F901895CF93CFB7F8948091810A811151
:1031800027C0E9ECF1E08491E3E8F1E09491E82FC5
:10319000F0E0EE0FFF1FE25FFD4FA591B4918C911F
:1031A000892321F461E085E30E94122C61E085E32C
:1031B0000E94D92B8CB580618CBD8CB580648CBD90
:1031C00061E084E30E94D92B61E083E30E94D92B64
:1031D0008091810A8F5F8093810ACFBFCF9108953C
:1031E0000F9300E020E040E060E082E89AE00E9477
:1031F000CA2E0F910895FB0142815381648175812C
:10320000FC01428353836483758317821682089579
:10321000FB0120E080E090E06AE03191332309F186
:1032200070ED730F7A3080F4DC016A9FC0016B9FF0
:10323000900D1124C097830F911D37FD9A958F3FF4
:10324000910559F350F314C03E3291F4233081F0CC
:10325000DA01A20FB11D12968C932F5F80E090E0EF
:10326000DCCF233029F4FA01858381E090E00895D2
:1032700080E090E008950F9300E020E040E060E0FF
:1032800088E89AE00E94CA2E0F910895AF92BF92EB
:10329000CF92DF92EF92FF920F931F93CF93DF9322
:1032A00000D01F921F92CDB7DEB78C017B010E9428
:1032B000D02AF801778366837627672776277A8373
:1032C0006983085F1F4F42E050E0BE016F5F7F4F90
:1032D000C8013CD781E090E09C838B8342E050E0C2
:1032E000BE016D5F7F4FC80131D780E091E09C83C4
:1032F0008B8342E050E0BE016D5F7F4FC80126D74F
:103300001C821B8242E050E0BE016D5F7F4FC8010E
:103310001DD742E050E0BE016D5F7F4FC80116D758
:1033200042E050E0BE016D5F7F4FC8010FD76701DB
:10333000F6018081882301F1F7016F0181918111EC
:1033400013C05601AE18BF081A141B0484F4AD82D2
:1033500041E050E0BE016B5F7F4FC801F7D6A50189
:10336000B701C801F3D603C08E3239F7EACF760130
:10337000FFEFEF1AFF0ADCCF1D8241E050E0BE01F3
:103380006B5F7F4FC801E2D6E12CFF24F394FC82EF
:10339000EB8242E050E0BE016D5F7F4FC801D6D6A0
:1033A000FC82EB8242E050E0BE016D5F7F4FC801BE
:1033B000CDD681E090E00F900F900F900F900F907E
:1033C000DF91CF911F910F91FF90EF90DF90CF9001
:1033D000BF90AF9008954F925F926F927F928F92BD
:1033E0009F92AF92BF92CF92DF92EF92FF920F9394
:1033F0001F93CF93DF93CDB7DEB763970FB6F894E3
:10340000DEBF0FBECDBF7C015B016A010E94D02AE6
:103410002B013C018701085F1F4F4501A12CB12CF6
:10342000C8012ED71816190694F00E94D02A6419E4
:1034300075098609970986169706A806B906D0F079
:1034400062E370E080E090E00E94FF2AE9CFF7019C
:103450004281538164817581808D918DA28DB38D60
:10346000481759076A077B0741F4848D958DC597E6
:1034700021F406C08FEF9FEFE1C08EEF9FEFDEC01B
:10348000C8012BD60C97E4F04CE050E0BE016F5F12
:103490007F4FC80196D66C818B810E949F309A8B9A
:1034A000898BF701E680F7806A8189810E949F30CD
:1034B000E816F90641F489899A8997FF04C008C083
:1034C0008DEF9FEFBBC0C80122D68CEF9FEFB6C037
:1034D0008F709270892B29F0C80119D68BEF9FEF5E
:1034E000ADC068858F810E949F305C01009719F004
:1034F000E12CF12C1DC0C8010AD68AEF9FEF9EC0B7
:1035000041E050E0BE01635F7F4FC8015AD68D8510
:10351000811116C08D858111F3CFC8012AD6C8014B
:1035200028D6C80126D6C80124D6FFEFEF1AFF0A15
:103530006E818D810E949F30E816F90608F309C05C
:103540008D859FEF980F9D87882321F3C80111D6A1
:10355000F7CFE12CF12C41E050E0BE016D5E7F4FD2
:10356000C8012FD68B89982F907C59F4882361F05D
:103570008B899FEF980F9B8B882331F0C801F9D579
:10358000F7CFC801F6D51B8A8B898111E4CF42E0C1
:1035900050E0BE01615F7F4FC80113D642E050E0AA
:1035A000BE01635F7F4FC8010CD6C801E2D5C801D8
:1035B000E0D5C801DED5C801DCD542E050E0BE014F
:1035C0006F5E7F4FC801FDD58F8598898115914029
:1035D00029F48D859E858115914019F0812C912CBF
:1035E00014C089899A898115944029F0C8018FD522
:1035F00087EF9FEF23C0B6016E5F7F4F44E050E03E
:10360000C801DFD581E090E019C089899A8998279F
:10361000892798278816990630F4C801AAD52FEF74
:10362000821A920AF2CF8FEFE81AF80AEA14FB0422
:1036300009F091CFC8016BD586EF9FEF63960FB667
:10364000F894DEBF0FBECDBFDF91CF911F910F91D8
:10365000FF90EF90DF90CF90BF90AF909F908F90B2
:103660007F906F905F904F9008958F929F92AF924E
:10367000BF92CF92DF92EF92FF920F931F93CF935F
:10368000DF9300D000D0CDB7DEB78C015B016A01BB
:10369000BFDD4C01009709F057C0F801428153810A
:1036A0006481758180918A0A90918B0AA0918C0A1D
:1036B000B0918D0A481759076A077B0709F448C07B
:1036C0000E94D02A7801F8E0EF0EF11C6F70772786
:1036D0007C5FC701AAD5813009F03EC08FE898E031
:1036E0009A838983F80182819381A481B5818B8338
:1036F0009C83AD83BE8345E350E0BE016F5F7F4F87
:10370000C7011AD5892B19F4812C912C1AC0B50147
:10371000C801BCDD892BC1F3C70115D5892BA1F3E5
:1037200033E0A32EB12CA60168E873E1C80153DE93
:103730004C01F1E0AF1AB10821F08F3F2FEF920753
:1037400091F3C701E5D408C088248394912C04C068
:103750009EEF892E99249A94C40126960FB6F89468
:10376000DEBF0FBECDBFDF91CF911F910F91FF90B4
:10377000EF90DF90CF90BF90AF909F908F90089583
:103780002091800A222399F03FB7F8942091800A73
:10379000213059F42DB320937E0A4DB320917F0A36
:1037A000209524232DBB3FBF02C030937E0A8CBDE1
:1037B0009DBD08958091800A882361F09FB7F89499
:1037C0002091800A80917E0A213019F48DBB9FBF21
:1037D00008958FBF089544E050E0BC0181E090E07F
:1037E0000C94EA2644E050E0BC0185E090E00C94A3
:1037F000EA2644E050E0BC018FE090E00C94EA2619
:103800008F929F92AF92BF92CF92DF92EF92FF92F0
:103810000F931F93CF93DF931F921F92CDB7DEB705
:103820004C016A01590188EB9AE069837A830E940E
:10383000862680E590E0A4DF46E050E069817A8149
:1038400089E090E00E94EA26C6010296D2DFC80114
:103850000296C1DFC7010296C5DFACDFF5014281E8
:10386000538164817581F40142835383648375833A
:103870000F900F90DF91CF911F910F91FF90EF90DC
:10388000DF90CF90BF90AF909F908F9008956F92F0
:103890007F928F929F92AF92BF92CF92DF92EF92E0
:1038A000FF920F931F93CF93DF93CDB7DEB76E9741
:1038B0000FB6F894DEBF0FBECDBF6C015B017A017D
:1038C0004901380100E02FEF4FEF6FEFCE0149962D
:1038D0000E94CA2E2FE838E03A8329838B8D9C8D75
:1038E000AD8DBE8D8B839C83AD83BE8338872F8344
:1038F000F30182819381A481B58189879A87AB87FF
:10390000BC873E872D87F40182819381A481B58194
:103910008F87988BA98BBA8B3C8B2B8BF7014281BD
:103920005381648175814D8B5E8B6F8B788FCE0157
:1039300001967C018E01095F1F4F9E01235F3F4F5F
:10394000AE014D5E5F4FB501C6015ADF6E960FB6F0
:10395000F894DEBF0FBECDBFDF91CF911F910F91C5
:10396000FF90EF90DF90CF90BF90AF909F908F909F
:103970007F906F900895CF92DF92EF92FF920F9316
:103980001F93CF93DF93CDB7DEB768970FB6F89448
:10399000DEBF0FBECDBF6B017901DA0112964D91EA
:1039A0005D916D917C9115974D8B5E8B6F8B788FB0
:1039B000AFE8B8E0BA83A98321E0288F0D891E897A
:1039C0002F89388D0B831C832D833E83B887AF836B
:1039D000F701028113812481358109871A872B879A
:1039E0003C87BE87AD874F87588B698B7A8B8E015A
:1039F0000F5F1F4F9E01295F3F4FAE01435F5F4F37
:103A0000B60145DF68960FB6F894DEBF0FBECDBF96
:103A1000DF91CF911F910F91FF90EF90DF90CF90AA
:103A200008950F931F93CF93DF93CDB7DEB76297BF
:103A30000FB6F894DEBF0FBECDBFDB01FA014281A5
:103A40005381648175814F87588B698B7A8BEFE83E
:103A5000F8E0FA83E98321E02A8B0F851889298908
:103A60003A890B831C832D833E83F887EF83498734
:103A70005A876B877C879E012F5F3F4FAE01495F5E
:103A80005F4FBD0178DF62960FB6F894DEBF0FBEC0
:103A9000CDBFDF91CF911F910F9108952FE838E0AE
:103AA000FC0131832083FB01428153816481758154
:103AB000FC01428353836483758308950F9300E070
:103AC00020E040E060E08EE99AE00E94CA2E8EE895
:103AD0009AE00F910C94C02E81E086270895862FDE
:103AE0000895DC01ED91FC91048CF58DE02D199584
:103AF00091E089270895CF93DF931F92CDB7DEB76A
:103B00006983DC01ED91FC910280F381E02D41E0BD
:103B100050E0BE016F5F7F4F19950F90DF91CF91FD
:103B2000089521E0FC018485843009F420E0822F8F
:103B30000895FC019485FB018485981303C081E0FE
:103B4000943009F480E008950F931F93CF93DF938F
:103B5000EC018A018C85843019F0A0D6892B39F4C8
:103B600081E090E09B838A8380E090E001C0C801FF
:103B7000DF91CF911F910F910895FC0184858430CE
:103B800009F071C780E090E00895CF93DF931F9212
:103B9000CDB7DEB741E050E0BE016F5F7F4FFC0163
:103BA000848505D7181619061CF4898190E002C097
:103BB0008FEF9FEF0F90DF91CF910895FC018485E7
:103BC000F6C60F931F93CF93DF931F92CDB7DEB747
:103BD0008C01DC01ED91FC910480F581E02D1995BB
:103BE000892B49F0BE016F5F7F4FF801848564D750
:103BF000898190E002C08FEF9FEF0F90DF91CF910E
:103C00001F910F910895FC01848584C7CF92DF92A4
:103C1000EF92FF920F931F93CF93DF93CDB7DEB751
:103C2000AF970FB6F894DEBF0FBECDBF7C018B01FE
:103C30006A01CE0101960E94C02ECE010996FDD3E5
:103C4000CE018A960E94C02E6EE87AE0CE0184965C
:103C500025DFBE016C5D7F4FCE010196CCDAAE014F
:103C6000465D5F4FB801CE010196FFDC81309105C2
:103C7000C1F4D701ED91FC910484F585E02D8FE826
:103C800098E09DA38CA30CA51DA52EA53FA50EA372
:103C90001FA328A739A7A601BE016C5D7F4FC701EE
:103CA0001995AF960FB6F894DEBF0FBECDBFDF916A
:103CB000CF911F910F91FF90EF90DF90CF900895DB
:103CC000FC01262F1382128248EE53E060E070E080
:103CD00044835583668377838BE198E09183808367
:103CE00024870895FC018485843009F099C480E01C
:103CF0000895DF92EF92FF920F931F93CF93DF937C
:103D0000EC017B018A018C85843009F040C0D12C04
:103D10008D2D86D4811102C0DC8607C08B7F88314F
:103D2000D9F3D39484E0D812F3CF8C85843079F121
:103D30002091790230917A022F5F3F4F11F420E0F9
:103D400030EC30937A0220937902409179025091BD
:103D50007A0220E061E0ADD4B7016E5F7F4FA80129
:103D60008C8522D5811103C084E08C8710C0CE01E0
:103D7000B9DF873149F061E070E080E090E00E94B7
:103D8000FF2ACE01AFDFEECF81E090E002C080E0FD
:103D900090E0DF91CF911F910F91FF90EF90DF9016
:103DA0000895CF92DF92EF92FF92CF93DF93EC01D1
:103DB0008C85843031F14DD50E94D02A6B017C0175
:103DC000CE0190DF882399F061E070E080E090E020
:103DD0000E94FF2A0E94D02A6C197D098E099F0932
:103DE000683E73408105910558F38C853CD4EC8581
:103DF000F0E0EE0FFF1FEA56F54F1182108284E0CB
:103E00008C87DF91CF91FF90EF90DF90CF90089556
:103E1000CF93DF93EC018C858430C9F0CE0162DF53
:103E20008431A9F0882399F0883189F08C3169F4C4
:103E3000E881F9810480F581E02DCE01199521E01A
:103E4000892B09F420E0822F03C081E001C080E0CB
:103E5000DF91CF9108950F9300E020E040E060E013
:103E600084EA9AE00E94CA2E0F910895CF93DF93BF
:103E70001F92CDB7DEB76983DC01ED91FC91028022
:103E8000F381E02D41E050E0BE016F5F7F4F199557
:103E90000F90DF91CF910895EF92FF920F931F93B0
:103EA000CF93DF93CDB7DEB72D970FB6F894DEBF73
:103EB0000FBECDBF7C0100E010E0602FCE01019667
:103EC000FFDECE0101960EDF811114C0F70144819F
:103ED000558120E061E0802FECD3802F38D4F701AA
:103EE00084819581F801EE0FFF1FEA56F54F91830B
:103EF000808305C00F5F1F4F04301105F1F62D962A
:103F00000FB6F894DEBF0FBECDBFDF91CF911F91EA
:103F10000F91FF90EF900895FC01138212828FE3BE
:103F200098E091838083758364830895BF92CF92D4
:103F3000DF92EF92FF920F931F93CF93DF93CDB752
:103F4000DEB72D970FB6F894DEBF0FBECDBF8C0144
:103F500046E9C42E4AE0D42EB12CE12CF12C6B2D75
:103F6000CE010196ADDED6012D913D916D01F80196
:103F7000848195812817390799F4CE010196B2DE24
:103F8000843159F0CE010196ADDE8C3149F4CE0179
:103F90000196F3DD892B99F003C0EE24E394F12C14
:103FA000B394F4E0BF12DBCFEF2869F4D801ED91B0
:103FB000FC910480F581E02DC801199504C0CE0163
:103FC0000196EFDEEDCF2D960FB6F894DEBF0FBE53
:103FD000CDBFDF91CF911F910F91FF90EF90DF90B8
:103FE000CF90BF9008957F928F929F92AF92BF9291
:103FF000CF92DF92EF92FF920F931F93CF93DF93B5
:10400000CDB7DEB72D970FB6F894DEBF0FBECDBF8C
:104010006C015B014A018ADF56E9E52E5AE0F52E74
:10402000712C00E010E0672DCE01019649DEF7010A
:10403000219131917F01F6018481958128173907FB
:1040400029F4CE0101964EDE8731C9F07394F4E075
:104050007F12E9CFC8012D960FB6F894DEBF0FBED0
:10406000CDBFDF91CF911F910F91FF90EF90DF9027
:10407000CF90BF90AF909F908F907F900895A401B4
:10408000B501CE01019660DD080F191FDFCF0F9338
:1040900000E020E040E060E08AEA9AE00E94CA2E58
:1040A0000F910895DC01ED91FC91008CF18DE02DD4
:1040B00019942FE838E0FC0131832083FB0140890B
:1040C000518962897389FC014283538364837583B8
:1040D0000895FC01848995890895FC01818D928D54
:1040E0000895CF93DF931F92CDB7DEB76983DC01CC
:1040F000ED91FC910280F381E02D41E050E0BE01A2
:104100006F5F7F4F19950F90DF91CF9108950895BC
:10411000CF93DF93EC01888D843059F0A4D2E88DE1
:10412000F0E0EE0FFF1FEA56F54F1182108284E097
:10413000888FDF91CF910895FC01178A168A6E5FF0
:104140007F4F808D2CC5FC01808D6DC5CF93DF9393
:10415000EC019A018E899F89AB01BC01888DDBD46B
:104160002E893F89280F391F3F8B2E8BDF91CF91EE
:1041700008950F931F93CF93DF931F92CDB7DEB7B0
:104180008C01FC01818D928D892B51F041E050E032
:10419000BE016F5F7F4F808D0AD4181619061CF080
:1041A0008FEF9FEF08C0F801818D928D0197928F5C
:1041B000818F898190E00F90DF91CF911F910F91B6
:1041C0000895CF93DF93EC01898D9A8D009719F4B0
:1041D0008FEF9FEF0FC04817590708F0AC01888D8B
:1041E000E6D318161906A4F7298D3A8D281B390B2A
:1041F0003A8F298FDF91CF910895CF93DF931F924C
:10420000CDB7DEB7FC01218D328D232B41F0BE01ED
:104210006F5F7F4F808D50D4898190E002C08FEF17
:104220009FEF0F90DF91CF910895FF920F931F930F
:10423000CF93DF93EC018B01888D8430D1F4F12C86
:104240008F2DEED1811102C0F88E06C08831E1F3C6
:10425000F39484E0F812F4CF888D843051F01D87F8
:104260000C871A8E198E20E0A80162E022D281E02C
:1042700001C080E0DF91CF911F910F91FF900895D1
:104280000F931F93CF93DF93CDB7DEB728970FB669
:10429000F894DEBF0FBECDBF8C01F801818D928DE9
:1042A000892B49F0D801ED91FC910680F781E02D32
:1042B000C8011995F2CF808DD6D3181619063CF592
:1042C00048E050E0BE016F5F7F4FD80158968C9157
:1042D0006ED318161906ECF4BE016F5F7F4FC8014C
:1042E0000E960E94E62E8D8190E0982F88272E81D1
:1042F000820F911DF801958B848B8F8190E0982F10
:1043000088272885820F911D928F818F02C080E0BF
:1043100090E028960FB6F894DEBF0FBECDBFDF91B8
:10432000CF911F910F9108958F929F92AF92BF925C
:10433000CF92DF92EF92FF920F931F93CF93DF9371
:1043400000D000D0CDB7DEB78C017B014A01FC0163
:10435000808D843009F05DC073E0A72E74E0B72E25
:10436000C12CD12CC5015FD5811103C0F801C08ECD
:104370000AC08831D9F3FFEFCF1ADF0AB394E4E023
:10438000CE16D10479F7F801808D843009F441C04C
:1043900096E0EBE7F2E0DE01119601900D929A951E
:1043A000E1F7F70193819F779C8394819D839581A9
:1043B0009E83B7016E5F7F4F90E0982F882744E07F
:1043C00050E0845F9B4F06D5F801808D90E0049605
:1043D000F82EEE24692DC70140967BD4682DC701C5
:1043E000419677D4F801808D90E0982F882746E099
:1043F00050E0BE016F5F7F4F8A5F9B4FEBD4F801A7
:10440000128E118E20E8A40162E0808D52D181E0ED
:1044100001C080E026960FB6F894DEBF0FBECDBF78
:10442000DF91CF911F910F91FF90EF90DF90CF9090
:10443000BF90AF909F908F900895CF93DF93EC0142
:104440001B821A8248EE53E060E070E04C835D838B
:104450006E837F8389E498E099838883CE010E96EA
:104460000E94C02E84E0888FDF91CF910895CF9273
:10447000DF92EF92FF920F931F93CF93DF93CDB70D
:10448000DEB7AF970FB6F894DEBF0FBECDBF7C018D
:104490008B016A01CE0101960E94C02ECE010996C1
:1044A000CCDFCE018A960E94C02E6EE87AE0CE0163
:1044B0008496F4DABE016C5D7F4FCE0101960E94B6
:1044C000FB18AE01465D5F4FB801CE010196CDD815
:1044D00081309105C1F4D701ED91FC910088F189FB
:1044E000E02D8FE898E09DA38CA30CA51DA52EA51B
:1044F0003FA50EA31FA328A739A7A601BE016C5D87
:104500007F4FC7011995AF960FB6F894DEBF0FBE67
:10451000CDBFDF91CF911F910F91FF90EF90DF9072
:10452000CF9008950F9300E020E040E060E080EB42
:104530009AE00E94CA2E0F910895CF92DF92EF92D7
:10454000FF920F9330E0C12CF2E1DF2EFAE7EF2E5D
:10455000F12C4C155D056E057F0540F4F694E7944B
:10456000D794C7943F5F3630A1F737E041E0432747
:10457000211102C050E701C050E5242F30E03595ED
:10458000279523700C70202B252BFC012083417074
:1045900041830F91FF90EF90DF90CF90089590E0CE
:1045A000982F882744E050E0845F9B4F13C4282F46
:1045B00030E02C5F3F4F922F8827860F971F33C420
:1045C00062E070E0F4CFFB01282F30E02C5F3F4F1A
:1045D000922F8827642F8E0F9F1F7BC3CF93DF936B
:1045E000C82FD62F472F64E070E0EDDF4D2F65E038
:1045F00070E08C2FDF91CF91E6CF462F62E070E024
:10460000E2CFCF93DF93C82FD62F472F60E170E022
:10461000DADF4D2F61E170E08C2FDF91CF91D3CFA6
:104620000F931F93CF93DF9300D0CDB7DEB7182F32
:1046300000E021E040E059E06DE370E0CE0101963A
:104640007CDF89819A819CD863E070E0812FAFDFA5
:104650008B83B0D88B810F900F900F90DF91CF910B
:104660001F910F9108950F931F93CF93DF931F9284
:104670001F92CDB7DEB7182F00E021E040E059E0EF
:104680006DE370E0CE01019658DF89819A8178D878
:1046900040E150E0612F88EB9AE06ED56FEF812FFB
:1046A000ACDF88D80F900F90DF91CF911F910F91C1
:1046B0000895CF92DF92EF92FF920F931F93CF93C3
:1046C000DF931F921F92CDB7DEB7182FD62E7A0137
:1046D000C22E8FEF860F853070F5812FC4DF00E08A
:1046E00021E040E059E06DE370E0CE01019625DF66
:1046F00089819A8145D84D2D4C2960E070E0812F49
:1047000062DFE114F10411F0B7010AC06091B60A4A
:104710007091B70A6F5F7F4F7093B70A6093B60AC4
:10472000812F5CDF41E050E0612F88EB9AE024D5D7
:1047300041D881E001C080E00F900F90DF91CF91D0
:104740001F910F91FF90EF90DF90CF9008950F93FE
:104750001F93CF93DF931F921F92CDB7DEB7182F11
:1047600000E021E040E059E06DE370E0CE01019609
:10477000E4DE89819A8104D863E070E0812F17DF3D
:10478000833119F017D880E008C042E050E0612F73
:1047900088EB9AE0F1D40ED881E00F900F90DF9172
:1047A000CF911F910F910895CF92DF92EF92FF92D8
:1047B0000F931F93CF93DF931F921F92CDB7DEB756
:1047C000182F7B016A01FB0180818F3F51F48181A9
:1047D0008F3F99F482818F3F81F483818F3F69F409
:1047E0002CC081110AC0FB018181811106C0828128
:1047F000811103C08381882301F1C114D104E9F040
:1048000000E021E040E059E06DE370E0CE01019668
:1048100094DE89819A810E94C01BB701812FBFDE7F
:10482000B601812FEEDE44E050E0612F88EB9AE084
:10483000A3D40E94DA1B81E001C080E00F900F90AA
:10484000DF91CF911F910F91FF90EF90DF90CF906C
:1048500008950F931F93CF93DF931F921F92CDB7AD
:10486000DEB7182F00E021E040E059E06DE370E092
:10487000CE01019662DE89819A810E94C01B48E0C8
:1048800050E0612F88EB9AE077D40E94DA1B0F90FA
:104890000F90DF91CF911F910F910895BF92CF920A
:1048A000DF92EF92FF920F931F93CF93DF9300D08D
:1048B000CDB7DEB7B82E6B017A01413088E05807DA
:1048C00018F0E12C98E0F92E00E021E040E059E0FA
:1048D0006DE370E0CE01019630DE89819A810E94FD
:1048E000C01B6B2D88EB9AE0CED28C0163E070E0A8
:1048F0008B2D5DDE8B830E94DA1B8B81873111F05B
:104900008C3129F402D60E151F05F0F202C0E12CFD
:10491000F12C00E021E040E059E06DE370E0CE01D1
:1049200001960BDE89819A810E94C01B9701A60126
:104930006B2D88EB9AE05AD340E250E06B2D88EB68
:104940009AE01AD48B2D3CDE84FD1EC063E070E03B
:104950008B2D2DDE811107C00E94DA1B8B2D83DE8B
:1049600080E090E017C00E94DA1BCFD500E021E084
:1049700040E059E06DE370E0CE010196DEDD898113
:104980009A810E94C01BDECF60E18B2D36DE0E9433
:10499000DA1BC7010F900F900F90DF91CF911F91FD
:1049A0000F91FF90EF90DF90CF90BF900895AF925E
:1049B000BF92CF92DF92EF92FF920F931F93CF930C
:1049C000DF931F921F92CDB7DEB7182F5B016A01EC
:1049D00000E021E040E059E06DE370E0CE01019697
:1049E000ACDD89819A810E94C01B612F88EB9AE01F
:1049F0007AD27C01009799F463E070E0812FD7DDD3
:104A0000843109F18823F9F021E030E08C3111F490
:104A100020E030E0EE24FF24E21AF30A14C0C816A6
:104A2000D9060CF476011E141F046CF400E0970103
:104A3000A501612F88EB9AE054D340E450E0612F48
:104A400088EB9AE099D30E94DA1BC7010F900F9070
:104A5000DF91CF911F910F91FF90EF90DF90CF905A
:104A6000BF90AF9008950F931F93CF93DF9300D023
:104A70001F92CDB7DEB7182F00E021E040E059E0EB
:104A80006DE370E0CE01019658DD89819A810E9424
:104A9000C01B612F88EB9AE026D28B839C830E94F7
:104AA000DA1B8B819C810F900F900F900F90DF91FC
:104AB000CF911F910F910895EF92FF920F931F9343
:104AC000CF93DF931F921F92CDB7DEB7182F7B01D4
:104AD00000E021E040E059E06DE370E0CE01019696
:104AE0002CDD89819A810E94C01B01E021E030E029
:104AF000A701612F88EB9AE0F4D20E94DA1B81E0D3
:104B000090E00F900F90DF91CF911F910F91FF9048
:104B1000EF90089508959F92AF92BF92CF92DF9247
:104B2000EF92FF920F931F93CF93DF931F921F92E9
:104B3000CDB7DEB7982E6B015A01790100E021E074
:104B400040E059E06DE370E0CE010196F6DC89812A
:104B50009A810E94C01B692D88EB9AE094D18E1532
:104B60009F0528F4692D88EB9AE08DD17C0187019F
:104B70009501A601692D88EB9AE0CFD10E94DA1B3E
:104B8000C7010F900F90DF91CF911F910F91FF9070
:104B9000EF90DF90CF90BF90AF909F900895CF920D
:104BA000DF92EF92FF920F931F93CF93DF931F92A9
:104BB0001F92CDB7DEB7182F7B016A01FB01808100
:104BC000811109C08181811106C08281811103C0D8
:104BD00083818823D9F0C114D104C1F000E021E021
:104BE00040E059E06DE370E0CE010196A6DC8981DA
:104BF0009A810E94C01BB701812FD1DCB601812FA1
:104C000000DD0E94DA1B81E090E002C080E090E0CD
:104C10000F900F90DF91CF911F910F91FF90EF9028
:104C2000DF90CF9008950F931F93CF93DF931F9240
:104C30001F92CDB7DEB7182F00E021E040E059E029
:104C40006DE370E0CE01019678DC89819A810E9443
:104C5000C01B40E250E0612F88EB9AE08DD2812F9B
:104C6000AFDC84FD1DC0812FABDC83FF08C068E191
:104C7000812FC3DC0E94DA1B80E090E018C00E9404
:104C8000DA1B43D400E021E040E059E06DE370E03E
:104C9000CE01019652DC89819A810E94C01BDFCF30
:104CA00060E1812FAADC0E94DA1B81E090E00F9086
:104CB0000F90DF91CF911F910F9108958EBD00004D
:104CC0000DB407FEFDCF8EB508952C9808952C9A4B
:104CD00008951F93CF93DF931F921F92CDB7DEB736
:104CE000182F6A839983F1DF80EFE8DF9981892F9C
:104CF000E5DF812FE3DF6A81862FE0DFE8DF81E0F7
:104D00000F900F90DF91CF911F910895CF93DF9374
:104D1000EC016CE271E080E090E071D40E94BA187E
:104D2000249A8091800A882399F09FB7F894809103
:104D3000800A813059F48DB380937E0A2DB380911F
:104D40007F0A809582238DBB9FBF02C090937E0A0D
:104D500080E58CBD1DBC60E880E090E0BADF65E5D1
:104D60008BE190E0B6DF65E58AE190E0B2DF80910B
:104D7000800A882361F09FB7F8942091800A80917F
:104D80007E0A213019F48DBB9FBF01C08FBF80E028
:104D900090E49983888380E090E69987888780E013
:104DA00098E49B838A8380E098E69B878A8780E0EB
:104DB00090E59D838C8380E090E79D878C8780E0E1
:104DC00098E59F838E8380E098E79F878E87DF91A9
:104DD000CF910895CF92DF92EF92FF920F931F939E
:104DE000CF93DF93EC017A018B016C01C40ED51EC9
:104DF000CC15DD0571F069DF80EF60DF8D2F5EDFA0
:104E00008C2F5CDF2196F80181918F0157DF5FDFE6
:104E1000EFCFC701DF91CF911F910F91FF90EF90DE
:104E2000DF90CF9008951F93CF93DF931F92CDB75C
:104E3000DEB7182F998349DF8FE040DF9981892FF2
:104E40003DDF812F3BDF80E039DF898340DF8981CF
:104E50000F90DF91CF911F9108951F93CF93DF9310
:104E6000182F60E270E0A3DBC82FD0E061E270E0B1
:104E7000812F9DDBDC2FCC279E01282BC901DF91E0
:104E8000CF911F910895FF920F931F93CF93DF93BC
:104E9000F62EC0E0D0E08F2DE0DF8C01009719F0F6
:104EA0008F2DDBDFEC01C017D107A9F7CE01DF9111
:104EB000CF911F910F91FF9008951F93CF93DF9390
:104EC000182F66E270E073DBC82FD0E067E270E075
:104ED000812F6DDBDC2FCC279E01282BC901DF91B0
:104EE000CF911F910895FF920F931F93CF93DF935C
:104EF000F62EC0E0D0E08F2DE0DF8C01009719F096
:104F00008F2DDBDFEC01C017D107A9F7CE01DF91B0
:104F1000CF911F910F91FF9008956F927F929F9272
:104F2000AF92BF92CF92DF92EF92FF920F931F93B7
:104F3000CF93DF931F92CDB7DEB7D82E962E3A01CE
:104F4000590164E270E0892D998331DBE82EF12C60
:104F500065E270E0892D2BDBFE2CEE24E82AE60CBE
:104F6000F71C970137706D2C9981792E690C711C93
:104F7000690C711CD301ED91FC91E20FF31FC90183
:104F8000800F911F8130984098F0C12C48E0D42EBA
:104F9000C21AD30AA601B501CF011CDFA8014C1922
:104FA0005D09B5016C0D7D1DF3018081918103C008
:104FB000A801B501CF010EDFE00EF11E4F2D64E216
:104FC00070E0892D00DB4E2D65E270E0892D0F9099
:104FD000DF91CF911F910F91FF90EF90DF90CF90D5
:104FE000BF90AF909F907F906F90EDCA0F931F93EB
:104FF00089019A0140E050E090DF1F910F910895E0
:10500000CF92DF92EF92FF920F931F93CF93DF9394
:10501000EC017A018B016C01C40ED51ECC15DD05A7
:1050200079F053DE8FE04ADE8D2F48DE8C2F46DE8E
:10503000219680E043DEF80181938F0148DEEECFB8
:10504000C701DF91CF911F910F91FF90EF90DF90FB
:10505000CF900895AF92BF92CF92DF92EF92FF92DE
:105060000F931F93CF93DF931F921F92CDB7DEB79D
:105070005A8349835901E981FA81F7707C01E60E70
:10508000F11CE60EF11CD70118968D919C91199791
:105090008E0F9F1F98012E0F3F1F2130384090F038
:1050A000C12C68E0D62ECE1ADF0AA601B501A8DF12
:1050B000A8014C195D09B5016C0D7D1DF7018085B6
:1050C000918502C0A801B5010F900F90DF91CF919B
:1050D0001F910F91FF90EF90DF90CF90BF90AF9016
:1050E0008FCF8F929F92AF92BF92CF92DF92EF922B
:1050F000FF920F931F93CF93DF936C01962E5A016B
:105100007901802E68E270E0892D51DAC82FD0E055
:1051100069E270E0892D4BDADC2FCC27C82B8701A0
:105120009501AE01692DC60195DF811018C0CE0D25
:10513000DF1D4D2F68E270E0892D45DA4C2F69E2C2
:1051400070E0892DDF91CF911F910F91FF90EF902B
:10515000DF90CF90BF90AF909F908F9034CADF9137
:10516000CF911F910F91FF90EF90DF90CF90BF9064
:10517000AF909F908F900895CF93C62F61E070E01D
:105180008C2F21DA61E070E08C2F11DA8111FACFD7
:10519000CF91089520910A0B30910B0B28173907F6
:1051A000B9F49091C80A8091C90A981789F0E091E2
:1051B000C80AF0E0E653F54F80812091C80A30E03C
:1051C0002F5F3F4F2F7333272093C80A90E0089535
:1051D0008FEF9FEF08951F93CF93DF93DC015C96D1
:1051E0008D919C915D97009749F481E090E0139632
:1051F0009C938E93129780E090E03BC05196ED9186
:10520000FC91529750962C915097322F30951FB7A2
:105210005E964C915E9741FB772770F941FD609552
:10522000F8944081772311F0422B01C0432340833F
:10523000EC012197F1F748E0508160FF02C0522B4A
:1052400001C053235083EC012197F1F7669541503B
:1052500099F78081772311F0832301C0822B80830B
:105260001FBF5C968D919C915D970197F1F781E04E
:1052700090E0DF91CF911F910895089520910A0B3E
:1052800030910B0B2817390781F49091C80A80914F
:10529000C90A981751F0E091C80AF0E0E653F54FBB
:1052A0008081992787FD909508958FEF9FEF08954E
:1052B00020910A0B30910B0B2817390769F4809164
:1052C000C90A2091C80A90E0805C9F4F821B910917
:1052D00060E470E00C94063280E090E00895E09184
:1052E0000A0BF0910B0BE817F90769F4A389B4894D
:1052F0009C918589809589238C9310920B0B109239
:105300000A0B81E0089580E008951F920F920FB676
:105310000F9211240BB60F922F933F934F935F93ED
:105320006F937F938F939F93AF93BF93EF93FF936D
:10533000E0910A0BF0910B0B309709F451C0868D68
:10534000A685B785958581FF04C08C91892329F4B2
:1053500047C08C91892309F043C0A389B4899C91EB
:105360008589809589238C93868997890197F1F7A0
:10537000208D318DA685B785758558E040E0C9013F
:105380000197F1F7842F90E095958795482F6C91C0
:10539000672309F04068515091F7868D81FD409553
:1053A0008091C90A90E001968F7399272091C80ACD
:1053B000281749F0A091C90AB0E0A653B54F4C9305
:1053C0008093C90A03C0868D8160868F828D938DFC
:1053D0000197F1F7A389B4898C919589892B8C93D6
:1053E000FF91EF91BF91AF919F918F917F916F91BD
:1053F0005F914F913F912F910F900BBE0F900FBE79
:105400000F901F9018952FE638E0FC013183208320
:1054100066CF1F93CF93DF93EC01162F6E8D6695A9
:10542000617081E06827812FFDD161E0812FC1D1BA
:10543000812F90E0FC01E25BFE4FE491E88BFC01E0
:10544000EC56FE4FE491F0E0EE0FFF1FEC50FE4FE4
:10545000859194919A8B898BDF91CF911F910895BB
:105460001F93CF93DF93EC01162F60E0812FA1D122
:105470008E8D81FD03C061E0812FD4D11C87812FE7
:1054800090E0FC01E25BFE4FE491ED87FC01EC56FD
:10549000FE4FE491F0E0EE0FFF1FE652FE4F8591C4
:1054A00094919F878E87DF91CF911F910895FF92EE
:1054B0000F931F93CF93DF93EC01F62E522F1B8295
:1054C0001A8208EE13E020E030E00C831D832E8367
:1054D0003F838FE698E0998388831F8A1E8A198EFE
:1054E000188E1B8E1A8E1D8E1C8E8E8D8E7F50FBFD
:1054F00081F98E8F642FCE018CDF6F2DCE01DF916D
:10550000CF911F910F91FF90ABCF08951F920F92F3
:105510000FB60F9211242F933F938F939F93AF93C6
:10552000BF9380910D0B90910E0BA0910F0BB0913A
:10553000100B30910C0B23E0230F2D3720F4019634
:10554000A11DB11D05C026E8230F0296A11DB11DA6
:1055500020930C0B80930D0B90930E0BA0930F0BCD
:10556000B093100B8091110B9091120BA091130B23
:10557000B091140B0196A11DB11D8093110B909356
:10558000120BA093130BB093140BBF91AF919F918B
:105590008F913F912F910F900FBE0F901F901895F4
:1055A0002FB7F89460910D0B70910E0B80910F0B3B
:1055B0009091100B2FBF08953FB7F8948091110B75
:1055C0009091120BA091130BB091140B26B5A89BD0
:1055D00005C02F3F19F00196A11DB11D3FBF6627E1
:1055E000782F892F9A2F620F711D811D911D42E026
:1055F000660F771F881F991F4A95D1F70895CF929C
:10560000DF92EF92FF92CF93DF936B017C01D4DFA7
:10561000EB01C114D104E104F10479F076DFCCDFB1
:105620006C1B7D0B683E7340A0F381E0C81AD10863
:10563000E108F108C851DC4FECCFDF91CF91FF902A
:10564000EF90DF90CF900895789484B5826084BD08
:1056500084B5816084BD85B5826085BD85B5816076
:1056600085BDEEE6F0E0808181608083E1E8F0E0D6
:105670001082808182608083808181608083E0E805
:10568000F0E0808181608083E1EBF0E080818460E4
:105690008083E0EBF0E0808181608083E1E9F0E0ED
:1056A000808182608083808181608083E0E9F0E096
:1056B000808181608083E1EAF0E080818260808384
:1056C000808181608083E0EAF0E080818160808376
:1056D000E1E2F1E08081826080838081816080836B
:1056E000E0E2F1E0808181608083EAE7F0E08081A0
:1056F00084608083808182608083808181608083F8
:105700008081806880831092C100089590E0FC0140
:105710003197E231F10508F04BC0EE58FF4FC7C694
:10572000809180008F7703C0809180008F7D80936F
:105730008000089580918000877FF9CF84B58F77AE
:1057400002C084B58F7D84BD08958091B0008F77AD
:1057500003C08091B0008F7D8093B0000895809148
:1057600090008F7707C0809190008F7D03C080915B
:105770009000877F8093900008958091A0008F779C
:1057800007C08091A0008F7D03C08091A000877F1B
:105790008093A0000895809120018F7707C08091A9
:1057A00020018F7D03C080912001877F809320019D
:1057B0000895CF93DF9390E0FC01E25BFE4F2491CC
:1057C000FC01EC56FE4F8491882349F190E0880F4C
:1057D000991FFC01E25FFD4FA591B4918C509E4F43
:1057E000FC01C591D4919FB7611108C0F8948C91C8
:1057F000209582238C93888182230AC0623051F4E1
:10580000F8948C91322F309583238C938881822B4E
:10581000888304C0F8948C91822B8C939FBFDF9176
:10582000CF9108950F931F93CF93DF931F92CDB71E
:10583000DEB7282F30E0F901E85FFE4F8491F901CF
:10584000E25BFE4F1491F901EC56FE4F04910023E8
:10585000C1F0882319F0698359DF6981E02FF0E0F6
:10586000EE0FFF1FEC50FE4FA591B4919FB7F89437
:105870008C91611103C01095812301C0812B8C9301
:105880009FBF0F90DF91CF911F910F910895CF93FC
:10589000DF93282F30E0F901E85FFE4F8491F90192
:1058A000E25BFE4FD491F901EC56FE4FC491CC233C
:1058B00089F081112BDFEC2FF0E0EE0FFF1FE65295
:1058C000FE4FA591B4912C912D2381E090E021F41D
:1058D00080E002C080E090E0DF91CF910895FC016C
:1058E000818D228D90E0805C9F4F821B91098F7388
:1058F00099270895FC01918D828D981731F0828D42
:10590000E80FF11D858D90E008958FEF9FEF0895CA
:10591000FC01918D828D981761F0828DDF01A80FB7
:10592000B11D5D968C91928D9F5F9F73928F90E0D9
:1059300008958FEF9FEF08958DE39EE2892B39F054
:1059400080E090E0892B19F098D1811125C080E08A
:1059500090E0892B41F080E090E0892B21F00E94BB
:10596000000081111CC080E090E0892B41F080E0B4
:1059700090E0892B21F00E940000811113C080E08B
:1059800090E0892BA1F080E090E0892B81F00E94CB
:10599000000081110AC008950E940000D8CF0E9423
:1059A0000000E1CF0E940000EACF0C9400000895AF
:1059B000FC01848DDF01A80FB11DA35ABF4F2C91AC
:1059C000848D90E001968F739927848FA689B7897B
:1059D0002C93A089B1898C9180648C93938D848D54
:1059E000981306C00288F389E02D80818F7D808323
:1059F0000895CF93DF93EC01888D8823C1F0EA8965
:105A0000FB89808185FD05C0A889B9898C9186FDB7
:105A10000EC00FB607FCF5CF808185FFF2CFA889B5
:105A2000B9898C9185FFEDCFCE01C2DFE8CFDF9140
:105A3000CF910895CF92DF92FF920F931F93CF9350
:105A4000DF931F92CDB7DEB76C0181E0D601589687
:105A50008C9358975B969C915B975C968C915C9726
:105A6000981307C05096ED91FC915197808185FD68
:105A70002DC0F601038D10E00F5F1F4F0F7311272C
:105A8000F02EF601848DF81210C00FB607FCF9CF86
:105A9000D6015096ED91FC915197808185FFF1CF11
:105AA000C601698385DF6981ECCF838DE80FF11D25
:105AB000E35AFF4F6083D6015B960C935B97529637
:105AC000ED91FC915397808180620CC0D60156966F
:105AD000ED91FC91579760835096ED91FC91519711
